{
  "address": "0x76CF12eF1a01C15F9b4bDB0AA7AC3dD09dfcB0C4",
  "abi": [
    {
      "inputs": [
        {
          "internalType": "contract BaseRegistrarImplementation",
          "name": "_base",
          "type": "address"
        },
        {
          "internalType": "contract IPriceOracle",
          "name": "_prices",
          "type": "address"
        },
        {
          "internalType": "uint256",
          "name": "_minCommitmentAge",
          "type": "uint256"
        },
        {
          "internalType": "uint256",
          "name": "_maxCommitmentAge",
          "type": "uint256"
        },
        {
          "internalType": "contract ReverseRegistrar",
          "name": "_reverseRegistrar",
          "type": "address"
        },
        {
          "internalType": "contract INameWrapper",
          "name": "_nameWrapper",
          "type": "address"
        }
      ],
      "stateMutability": "nonpayable",
      "type": "constructor"
    },
    {
      "anonymous": false,
      "inputs": [
        {
          "indexed": false,
          "internalType": "string",
          "name": "name",
          "type": "string"
        },
        {
          "indexed": true,
          "internalType": "bytes32",
          "name": "label",
          "type": "bytes32"
        },
        {
          "indexed": true,
          "internalType": "address",
          "name": "owner",
          "type": "address"
        },
        {
          "indexed": false,
          "internalType": "uint256",
          "name": "baseCost",
          "type": "uint256"
        },
        {
          "indexed": false,
          "internalType": "uint256",
          "name": "premium",
          "type": "uint256"
        },
        {
          "indexed": false,
          "internalType": "uint256",
          "name": "expires",
          "type": "uint256"
        }
      ],
      "name": "NameRegistered",
      "type": "event"
    },
    {
      "anonymous": false,
      "inputs": [
        {
          "indexed": false,
          "internalType": "string",
          "name": "name",
          "type": "string"
        },
        {
          "indexed": true,
          "internalType": "bytes32",
          "name": "label",
          "type": "bytes32"
        },
        {
          "indexed": false,
          "internalType": "uint256",
          "name": "cost",
          "type": "uint256"
        },
        {
          "indexed": false,
          "internalType": "uint256",
          "name": "expires",
          "type": "uint256"
        }
      ],
      "name": "NameRenewed",
      "type": "event"
    },
    {
      "anonymous": false,
      "inputs": [
        {
          "indexed": true,
          "internalType": "address",
          "name": "previousOwner",
          "type": "address"
        },
        {
          "indexed": true,
          "internalType": "address",
          "name": "newOwner",
          "type": "address"
        }
      ],
      "name": "OwnershipTransferred",
      "type": "event"
    },
    {
      "inputs": [],
      "name": "MIN_REGISTRATION_DURATION",
      "outputs": [
        {
          "internalType": "uint256",
          "name": "",
          "type": "uint256"
        }
      ],
      "stateMutability": "view",
      "type": "function"
    },
    {
      "inputs": [
        {
          "internalType": "string",
          "name": "name",
          "type": "string"
        }
      ],
      "name": "available",
      "outputs": [
        {
          "internalType": "bool",
          "name": "",
          "type": "bool"
        }
      ],
      "stateMutability": "view",
      "type": "function"
    },
    {
      "inputs": [
        {
          "internalType": "bytes32",
          "name": "commitment",
          "type": "bytes32"
        }
      ],
      "name": "commit",
      "outputs": [],
      "stateMutability": "nonpayable",
      "type": "function"
    },
    {
      "inputs": [
        {
          "internalType": "bytes32",
          "name": "",
          "type": "bytes32"
        }
      ],
      "name": "commitments",
      "outputs": [
        {
          "internalType": "uint256",
          "name": "",
          "type": "uint256"
        }
      ],
      "stateMutability": "view",
      "type": "function"
    },
    {
      "inputs": [
        {
          "internalType": "string",
          "name": "name",
          "type": "string"
        },
        {
          "internalType": "address",
          "name": "owner",
          "type": "address"
        },
        {
          "internalType": "uint256",
          "name": "duration",
          "type": "uint256"
        },
        {
          "internalType": "bytes32",
          "name": "secret",
          "type": "bytes32"
        },
        {
          "internalType": "address",
          "name": "resolver",
          "type": "address"
        },
        {
          "internalType": "bytes[]",
          "name": "data",
          "type": "bytes[]"
        },
        {
          "internalType": "bool",
          "name": "reverseRecord",
          "type": "bool"
        },
        {
          "internalType": "uint32",
          "name": "fuses",
          "type": "uint32"
        },
        {
          "internalType": "uint64",
          "name": "wrapperExpiry",
          "type": "uint64"
        }
      ],
      "name": "makeCommitment",
      "outputs": [
        {
          "internalType": "bytes32",
          "name": "",
          "type": "bytes32"
        }
      ],
      "stateMutability": "pure",
      "type": "function"
    },
    {
      "inputs": [],
      "name": "maxCommitmentAge",
      "outputs": [
        {
          "internalType": "uint256",
          "name": "",
          "type": "uint256"
        }
      ],
      "stateMutability": "view",
      "type": "function"
    },
    {
      "inputs": [],
      "name": "minCommitmentAge",
      "outputs": [
        {
          "internalType": "uint256",
          "name": "",
          "type": "uint256"
        }
      ],
      "stateMutability": "view",
      "type": "function"
    },
    {
      "inputs": [],
      "name": "nameWrapper",
      "outputs": [
        {
          "internalType": "contract INameWrapper",
          "name": "",
          "type": "address"
        }
      ],
      "stateMutability": "view",
      "type": "function"
    },
    {
      "inputs": [],
      "name": "owner",
      "outputs": [
        {
          "internalType": "address",
          "name": "",
          "type": "address"
        }
      ],
      "stateMutability": "view",
      "type": "function"
    },
    {
      "inputs": [],
      "name": "prices",
      "outputs": [
        {
          "internalType": "contract IPriceOracle",
          "name": "",
          "type": "address"
        }
      ],
      "stateMutability": "view",
      "type": "function"
    },
    {
      "inputs": [
        {
          "internalType": "string",
          "name": "name",
          "type": "string"
        },
        {
          "internalType": "address",
          "name": "owner",
          "type": "address"
        },
        {
          "internalType": "uint256",
          "name": "duration",
          "type": "uint256"
        },
        {
          "internalType": "bytes32",
          "name": "secret",
          "type": "bytes32"
        },
        {
          "internalType": "address",
          "name": "resolver",
          "type": "address"
        },
        {
          "internalType": "bytes[]",
          "name": "data",
          "type": "bytes[]"
        },
        {
          "internalType": "bool",
          "name": "reverseRecord",
          "type": "bool"
        },
        {
          "internalType": "uint32",
          "name": "fuses",
          "type": "uint32"
        },
        {
          "internalType": "uint64",
          "name": "wrapperExpiry",
          "type": "uint64"
        }
      ],
      "name": "register",
      "outputs": [],
      "stateMutability": "payable",
      "type": "function"
    },
    {
      "inputs": [
        {
          "internalType": "string",
          "name": "name",
          "type": "string"
        },
        {
          "internalType": "uint256",
          "name": "duration",
          "type": "uint256"
        }
      ],
      "name": "renew",
      "outputs": [],
      "stateMutability": "payable",
      "type": "function"
    },
    {
      "inputs": [],
      "name": "renounceOwnership",
      "outputs": [],
      "stateMutability": "nonpayable",
      "type": "function"
    },
    {
      "inputs": [
        {
          "internalType": "string",
          "name": "name",
          "type": "string"
        },
        {
          "internalType": "uint256",
          "name": "duration",
          "type": "uint256"
        }
      ],
      "name": "rentPrice",
      "outputs": [
        {
          "components": [
            {
              "internalType": "uint256",
              "name": "base",
              "type": "uint256"
            },
            {
              "internalType": "uint256",
              "name": "premium",
              "type": "uint256"
            }
          ],
          "internalType": "struct IPriceOracle.Price",
          "name": "price",
          "type": "tuple"
        }
      ],
      "stateMutability": "view",
      "type": "function"
    },
    {
      "inputs": [],
      "name": "reverseRegistrar",
      "outputs": [
        {
          "internalType": "contract ReverseRegistrar",
          "name": "",
          "type": "address"
        }
      ],
      "stateMutability": "view",
      "type": "function"
    },
    {
      "inputs": [
        {
          "internalType": "bytes4",
          "name": "interfaceID",
          "type": "bytes4"
        }
      ],
      "name": "supportsInterface",
      "outputs": [
        {
          "internalType": "bool",
          "name": "",
          "type": "bool"
        }
      ],
      "stateMutability": "pure",
      "type": "function"
    },
    {
      "inputs": [
        {
          "internalType": "address",
          "name": "newOwner",
          "type": "address"
        }
      ],
      "name": "transferOwnership",
      "outputs": [],
      "stateMutability": "nonpayable",
      "type": "function"
    },
    {
      "inputs": [
        {
          "internalType": "string",
          "name": "name",
          "type": "string"
        }
      ],
      "name": "valid",
      "outputs": [
        {
          "internalType": "bool",
          "name": "",
          "type": "bool"
        }
      ],
      "stateMutability": "pure",
      "type": "function"
    },
    {
      "inputs": [],
      "name": "withdraw",
      "outputs": [],
      "stateMutability": "nonpayable",
      "type": "function"
    }
  ],
  "transactionHash": "0xafdfd64d588ea2d4061dd76402aae2994109c87b440735ef4daa3c15512e5dc4",
  "args": [
    "0xd4825345cCfb2A3dCB310025770cdf722f660677",
    "0x943672D7D5B5De84FD2BAE45A13Fe0441EfbfD53",
    60,
    86400,
    "0xD47f7e53A1d12EDF6B9d179bB1C33fC9c51417F6",
    "0x268160619F51e6542F9920A3235139559DF0439d"
  ],
  "numDeployments": 1,
  "solcInputHash": "bfe2f3f8b503ffc082ee529a1f4da503",
  "bytecode": "0x6101406040523480156200001257600080fd5b50604051620024fc380380620024fc8339810160408190526200003591620000e4565b62000040336200007b565b8383116200004d57600080fd5b6001600160a01b0395861660805293851660a05260c09290925260e052821661010052166101205262000161565b600080546001600160a01b038381166001600160a01b0319831681178455604051919092169283917f8be0079c531659141344cd1fd0a4f28419497f9722a3daafe3b4186f6b6457e09190a35050565b6001600160a01b0381168114620000e157600080fd5b50565b60008060008060008060c08789031215620000fe57600080fd5b86516200010b81620000cb565b60208801519096506200011e81620000cb565b80955050604087015193506060870151925060808701516200014081620000cb565b60a08801519092506200015381620000cb565b809150509295509295509295565b60805160a05160c05160e0516101005161012051612313620001e960003960008181610334015261071f0152600081816101cf015261143301526000818161039b01528181610ea201526111150152600081816102b501526110650152600081816103cf01526109650152600081816109a701528181610ba20152610cfb01526123136000f3fe6080604052600436106101445760003560e01c80638da5cb5b116100c0578063ce1e09c011610074578063d555254a11610059578063d555254a146103f1578063f14fcbc814610411578063f2fde38b1461043157600080fd5b8063ce1e09c014610389578063d3419bf3146103bd57600080fd5b8063a8e5fbc0116100a5578063a8e5fbc014610322578063acf1a84114610356578063aeb8ce9b1461036957600080fd5b80638da5cb5b146102d75780639791c0971461030257600080fd5b8063808698531161011757806383e7f6ff116100fc57806383e7f6ff146102515780638a95b09f1461028c5780638d839ffe146102a357600080fd5b806380869853146101bd578063839df9451461021657600080fd5b806301ffc9a7146101495780633ccfd60b1461017e578063715018a6146101955780637acaaf26146101aa575b600080fd5b34801561015557600080fd5b5061016961016436600461182d565b610451565b60405190151581526020015b60405180910390f35b34801561018a57600080fd5b506101936104ea565b005b3480156101a157600080fd5b50610193610534565b6101936101b8366004611960565b6105ac565b3480156101c957600080fd5b506101f17f000000000000000000000000000000000000000000000000000000000000000081565b60405173ffffffffffffffffffffffffffffffffffffffff9091168152602001610175565b34801561022257600080fd5b50610243610231366004611a39565b60016020526000908152604090205481565b604051908152602001610175565b34801561025d57600080fd5b5061027161026c366004611b2c565b61091b565b60408051825181526020928301519281019290925201610175565b34801561029857600080fd5b506102436224ea0081565b3480156102af57600080fd5b506102437f000000000000000000000000000000000000000000000000000000000000000081565b3480156102e357600080fd5b5060005473ffffffffffffffffffffffffffffffffffffffff166101f1565b34801561030e57600080fd5b5061016961031d366004611b71565b610a7b565b34801561032e57600080fd5b506101f17f000000000000000000000000000000000000000000000000000000000000000081565b610193610364366004611ba6565b610a90565b34801561037557600080fd5b50610169610384366004611b71565b610cb2565b34801561039557600080fd5b506102437f000000000000000000000000000000000000000000000000000000000000000081565b3480156103c957600080fd5b506101f17f000000000000000000000000000000000000000000000000000000000000000081565b3480156103fd57600080fd5b5061024361040c366004611bf2565b610d82565b34801561041d57600080fd5b5061019361042c366004611a39565b610e8b565b34801561043d57600080fd5b5061019361044c366004611cc5565b610ee4565b60007fffffffff0000000000000000000000000000000000000000000000000000000082167f01ffc9a70000000000000000000000000000000000000000000000000000000014806104e457507fffffffff0000000000000000000000000000000000000000000000000000000082167fdf7ed18100000000000000000000000000000000000000000000000000000000145b92915050565b6000805460405173ffffffffffffffffffffffffffffffffffffffff909116914780156108fc02929091818181858888f19350505050158015610531573d6000803e3d6000fd5b50565b60005473ffffffffffffffffffffffffffffffffffffffff1633146105a05760405162461bcd60e51b815260206004820181905260248201527f4f776e61626c653a2063616c6c6572206973206e6f7420746865206f776e657260448201526064015b60405180910390fd5b6105aa6000610fd9565b565b60006105ef8c8c8080601f0160208091040260200160405190810160405280939291908181526020018383808284376000920191909152508d925061091b915050565b6020810151815191925061060291611d0f565b3410156106775760405162461bcd60e51b815260206004820152603160248201527f455448526567697374726172436f6e74726f6c6c65723a204e6f7420656e6f7560448201527f67682065746865722070726f76696465640000000000000000000000000000006064820152608401610597565b61071b8c8c8080601f016020809104026020016040519081016040528093929190818152602001838380828437600081840152601f19601f820116905080830192505050505050508a6107168f8f8080601f016020809104026020016040519081016040528093929190818152602001838380828437600081840152601f19601f820116905080830192505050505050508e8e8e8e8e8e8e8e8e610d82565b61104e565b60007f000000000000000000000000000000000000000000000000000000000000000073ffffffffffffffffffffffffffffffffffffffff16639f56dac68e8e8e8e8d8a8a6040518863ffffffff1660e01b81526004016107829796959493929190611d70565b6020604051808303816000875af11580156107a1573d6000803e3d6000fd5b505050506040513d601f19601f820116820180604052508101906107c59190611dda565b90506107ea888e8e6040516107db929190611df3565b6040518091039020898961124c565b8415610833576108338d8d8080601f0160208091040260200160405190810160405280939291908181526020018383808284376000920191909152508c92503391506114319050565b8a73ffffffffffffffffffffffffffffffffffffffff168d8d60405161085a929190611df3565b60405180910390207f69e37f151eb98a09618ddaa80c8cfaf1ce5996867c489f45b555b412271ebf278f8f86600001518760200151876040516108a1959493929190611e03565b60405180910390a3602082015182516108ba9190611d0f565b34111561090c576020820151825133916108fc916108d89190611d0f565b6108e29034611e34565b6040518115909202916000818181858888f1935050505015801561090a573d6000803e3d6000fd5b505b50505050505050505050505050565b6040805180820190915260008082526020820152825160208401206040517fd6e4fa86000000000000000000000000000000000000000000000000000000008152600481018290527f000000000000000000000000000000000000000000000000000000000000000073ffffffffffffffffffffffffffffffffffffffff908116916350e9a7159187917f00000000000000000000000000000000000000000000000000000000000000009091169063d6e4fa8690602401602060405180830381865afa1580156109f0573d6000803e3d6000fd5b505050506040513d601f19601f82011682018060405250810190610a149190611dda565b866040518463ffffffff1660e01b8152600401610a3393929190611ec1565b6040805180830381865afa158015610a4f573d6000803e3d6000fd5b505050506040513d601f19601f82011682018060405250810190610a739190611ee6565b949350505050565b60006003610a88836114f8565b101592915050565b60008383604051610aa2929190611df3565b604051809103902090506000610aef85858080601f01602080910402602001604051908101604052809392919081815260200183838082843760009201919091525087925061091b915050565b8051909150341015610b695760405162461bcd60e51b815260206004820152603460248201527f455448436f6e74726f6c6c65723a204e6f7420656e6f7567682045746865722060448201527f70726f766964656420666f722072656e6577616c0000000000000000000000006064820152608401610597565b6040517fc475abff00000000000000000000000000000000000000000000000000000000815260048101839052602481018490526000907f000000000000000000000000000000000000000000000000000000000000000073ffffffffffffffffffffffffffffffffffffffff169063c475abff906044016020604051808303816000875af1158015610c00573d6000803e3d6000fd5b505050506040513d601f19601f82011682018060405250810190610c249190611dda565b8251909150341115610c6c57815133906108fc90610c429034611e34565b6040518115909202916000818181858888f19350505050158015610c6a573d6000803e3d6000fd5b505b827f3da24c024582931cfaf8267d8ed24d13a82a8068d5bd337d30ec45cea4e506ae87873485604051610ca29493929190611f35565b60405180910390a2505050505050565b80516020820120600090610cc583610a7b565b8015610d7b57506040517f96e494e8000000000000000000000000000000000000000000000000000000008152600481018290527f000000000000000000000000000000000000000000000000000000000000000073ffffffffffffffffffffffffffffffffffffffff16906396e494e890602401602060405180830381865afa158015610d57573d6000803e3d6000fd5b505050506040513d601f19601f82011682018060405250810190610d7b9190611f5c565b9392505050565b895160208b01206000908515610e415773ffffffffffffffffffffffffffffffffffffffff8816610e415760405162461bcd60e51b815260206004820152604260248201527f455448526567697374726172436f6e74726f6c6c65723a207265736f6c76657260448201527f206973207265717569726564207768656e206461746120697320737570706c6960648201527f6564000000000000000000000000000000000000000000000000000000000000608482015260a401610597565b808b8b8a8a8a8e8b8b8b604051602001610e649a99989796959493929190611f79565b604051602081830303815290604052805190602001209150509a9950505050505050505050565b6000818152600160205260409020544290610ec7907f000000000000000000000000000000000000000000000000000000000000000090611d0f565b10610ed157600080fd5b6000908152600160205260409020429055565b60005473ffffffffffffffffffffffffffffffffffffffff163314610f4b5760405162461bcd60e51b815260206004820181905260248201527f4f776e61626c653a2063616c6c6572206973206e6f7420746865206f776e65726044820152606401610597565b73ffffffffffffffffffffffffffffffffffffffff8116610fd45760405162461bcd60e51b815260206004820152602660248201527f4f776e61626c653a206e6577206f776e657220697320746865207a65726f206160448201527f64647265737300000000000000000000000000000000000000000000000000006064820152608401610597565b610531815b6000805473ffffffffffffffffffffffffffffffffffffffff8381167fffffffffffffffffffffffff0000000000000000000000000000000000000000831681178455604051919092169283917f8be0079c531659141344cd1fd0a4f28419497f9722a3daafe3b4186f6b6457e09190a35050565b600081815260016020526040902054429061108a907f000000000000000000000000000000000000000000000000000000000000000090611d0f565b11156110fe5760405162461bcd60e51b815260206004820152602f60248201527f455448526567697374726172436f6e74726f6c6c65723a20436f6d6d69746d6560448201527f6e74206973206e6f742076616c696400000000000000000000000000000000006064820152608401610597565b600081815260016020526040902054429061113a907f000000000000000000000000000000000000000000000000000000000000000090611d0f565b116111ad5760405162461bcd60e51b815260206004820152602e60248201527f455448526567697374726172436f6e74726f6c6c65723a20436f6d6d69746d6560448201527f6e742068617320657870697265640000000000000000000000000000000000006064820152608401610597565b6111b683610cb2565b6112285760405162461bcd60e51b815260206004820152602b60248201527f455448526567697374726172436f6e74726f6c6c65723a204e616d652069732060448201527f756e617661696c61626c650000000000000000000000000000000000000000006064820152608401610597565b6000818152600160205260408120556224ea0082101561124757600080fd5b505050565b604080517f93cdeb708b7545dc668eb9280176169d1c33cfd8ed6f04690a0bcc88a93fc4ae602082015290810184905260009060600160405160208183030381529060405280519060200120905060005b828110156114295760008484838181106112b9576112b96120c4565b90506020028101906112cb91906120f3565b6112da91602491600491612158565b6112e391612182565b90508281146113805760405162461bcd60e51b815260206004820152605160248201527f455448526567697374726172436f6e74726f6c6c65723a204e616d656861736860448201527f206f6e207265636f726420646f206e6f74206d6174636820746865206e616d6560648201527f206265696e672072656769737465726564000000000000000000000000000000608482015260a401610597565b611414858584818110611395576113956120c4565b90506020028101906113a791906120f3565b8080601f016020809104026020016040519081016040528093929190818152602001838380828437600092019190915250506040805160608101909152602c80825290925090506122b2602083013973ffffffffffffffffffffffffffffffffffffffff8a1691906116ff565b50508080611421906121be565b91505061129d565b505050505050565b7f000000000000000000000000000000000000000000000000000000000000000073ffffffffffffffffffffffffffffffffffffffff16637a806d6b3383858760405160200161148191906121f6565b6040516020818303038152906040526040518563ffffffff1660e01b81526004016114af9493929190612237565b6020604051808303816000875af11580156114ce573d6000803e3d6000fd5b505050506040513d601f19601f820116820180604052508101906114f29190611dda565b50505050565b8051600090819081905b808210156116f657600085838151811061151e5761151e6120c4565b01602001517fff000000000000000000000000000000000000000000000000000000000000001690507f80000000000000000000000000000000000000000000000000000000000000008110156115815761157a600184611d0f565b92506116e3565b7fe0000000000000000000000000000000000000000000000000000000000000007fff00000000000000000000000000000000000000000000000000000000000000821610156115d65761157a600284611d0f565b7ff0000000000000000000000000000000000000000000000000000000000000007fff000000000000000000000000000000000000000000000000000000000000008216101561162b5761157a600384611d0f565b7ff8000000000000000000000000000000000000000000000000000000000000007fff00000000000000000000000000000000000000000000000000000000000000821610156116805761157a600484611d0f565b7ffc000000000000000000000000000000000000000000000000000000000000007fff00000000000000000000000000000000000000000000000000000000000000821610156116d55761157a600584611d0f565b6116e0600684611d0f565b92505b50826116ee816121be565b935050611502565b50909392505050565b6060610a7384846000858573ffffffffffffffffffffffffffffffffffffffff85163b61176e5760405162461bcd60e51b815260206004820152601d60248201527f416464726573733a2063616c6c20746f206e6f6e2d636f6e74726163740000006044820152606401610597565b6000808673ffffffffffffffffffffffffffffffffffffffff1685876040516117979190612282565b60006040518083038185875af1925050503d80600081146117d4576040519150601f19603f3d011682016040523d82523d6000602084013e6117d9565b606091505b50915091506117e98282866117f4565b979650505050505050565b60608315611803575081610d7b565b8251156118135782518084602001fd5b8160405162461bcd60e51b8152600401610597919061229e565b60006020828403121561183f57600080fd5b81357fffffffff0000000000000000000000000000000000000000000000000000000081168114610d7b57600080fd5b60008083601f84011261188157600080fd5b50813567ffffffffffffffff81111561189957600080fd5b6020830191508360208285010111156118b157600080fd5b9250929050565b803573ffffffffffffffffffffffffffffffffffffffff811681146118dc57600080fd5b919050565b60008083601f8401126118f357600080fd5b50813567ffffffffffffffff81111561190b57600080fd5b6020830191508360208260051b85010111156118b157600080fd5b801515811461053157600080fd5b803563ffffffff811681146118dc57600080fd5b803567ffffffffffffffff811681146118dc57600080fd5b60008060008060008060008060008060006101208c8e03121561198257600080fd5b67ffffffffffffffff808d35111561199957600080fd5b6119a68e8e358f0161186f565b909c509a506119b760208e016118b8565b995060408d0135985060608d013597506119d360808e016118b8565b96508060a08e013511156119e657600080fd5b506119f78d60a08e01358e016118e1565b909550935060c08c0135611a0a81611926565b9250611a1860e08d01611934565b9150611a276101008d01611948565b90509295989b509295989b9093969950565b600060208284031215611a4b57600080fd5b5035919050565b7f4e487b7100000000000000000000000000000000000000000000000000000000600052604160045260246000fd5b600082601f830112611a9257600080fd5b813567ffffffffffffffff80821115611aad57611aad611a52565b604051601f83017fffffffffffffffffffffffffffffffffffffffffffffffffffffffffffffffe0908116603f01168101908282118183101715611af357611af3611a52565b81604052838152866020858801011115611b0c57600080fd5b836020870160208301376000602085830101528094505050505092915050565b60008060408385031215611b3f57600080fd5b823567ffffffffffffffff811115611b5657600080fd5b611b6285828601611a81565b95602094909401359450505050565b600060208284031215611b8357600080fd5b813567ffffffffffffffff811115611b9a57600080fd5b610a7384828501611a81565b600080600060408486031215611bbb57600080fd5b833567ffffffffffffffff811115611bd257600080fd5b611bde8682870161186f565b909790965060209590950135949350505050565b6000806000806000806000806000806101208b8d031215611c1257600080fd5b8a3567ffffffffffffffff80821115611c2a57600080fd5b611c368e838f01611a81565b9b50611c4460208e016118b8565b9a5060408d0135995060608d01359850611c6060808e016118b8565b975060a08d0135915080821115611c7657600080fd5b50611c838d828e016118e1565b90965094505060c08b0135611c9781611926565b9250611ca560e08c01611934565b9150611cb46101008c01611948565b90509295989b9194979a5092959850565b600060208284031215611cd757600080fd5b610d7b826118b8565b7f4e487b7100000000000000000000000000000000000000000000000000000000600052601160045260246000fd5b60008219821115611d2257611d22611ce0565b500190565b8183528181602085013750600060208284010152600060207fffffffffffffffffffffffffffffffffffffffffffffffffffffffffffffffe0601f840116840101905092915050565b60c081526000611d8460c08301898b611d27565b905073ffffffffffffffffffffffffffffffffffffffff808816602084015286604084015280861660608401525063ffffffff8416608083015267ffffffffffffffff831660a083015298975050505050505050565b600060208284031215611dec57600080fd5b5051919050565b8183823760009101908152919050565b608081526000611e17608083018789611d27565b602083019590955250604081019290925260609091015292915050565b600082821015611e4657611e46611ce0565b500390565b60005b83811015611e66578181015183820152602001611e4e565b838111156114f25750506000910152565b60008151808452611e8f816020860160208601611e4b565b601f017fffffffffffffffffffffffffffffffffffffffffffffffffffffffffffffffe0169290920160200192915050565b606081526000611ed46060830186611e77565b60208301949094525060400152919050565b600060408284031215611ef857600080fd5b6040516040810181811067ffffffffffffffff82111715611f1b57611f1b611a52565b604052825181526020928301519281019290925250919050565b606081526000611f49606083018688611d27565b6020830194909452506040015292915050565b600060208284031215611f6e57600080fd5b8151610d7b81611926565b8a815273ffffffffffffffffffffffffffffffffffffffff8a8116602080840191909152604083018b905290891660608301526101206080830181905282018790526000906101408084019160058a901b8501909101908a845b8b81101561207d577ffffffffffffffffffffffffffffffffffffffffffffffffffffffffffffffec087850301855281357fffffffffffffffffffffffffffffffffffffffffffffffffffffffffffffffe18e360301811261203457600080fd5b8d01803567ffffffffffffffff81111561204d57600080fd5b8036038f131561205c57600080fd5b6120698682878501611d27565b968501969550505090820190600101611fd3565b50505060a0840188905286151560c085015291506120989050565b63ffffffff841660e083015267ffffffffffffffff83166101008301529b9a5050505050505050505050565b7f4e487b7100000000000000000000000000000000000000000000000000000000600052603260045260246000fd5b60008083357fffffffffffffffffffffffffffffffffffffffffffffffffffffffffffffffe184360301811261212857600080fd5b83018035915067ffffffffffffffff82111561214357600080fd5b6020019150368190038213156118b157600080fd5b6000808585111561216857600080fd5b8386111561217557600080fd5b5050820193919092039150565b803560208310156104e4577fffffffffffffffffffffffffffffffffffffffffffffffffffffffffffffffff602084900360031b1b1692915050565b60007fffffffffffffffffffffffffffffffffffffffffffffffffffffffffffffffff82036121ef576121ef611ce0565b5060010190565b60008251612208818460208701611e4b565b7f2e65746800000000000000000000000000000000000000000000000000000000920191825250600401919050565b600073ffffffffffffffffffffffffffffffffffffffff80871683528086166020840152808516604084015250608060608301526122786080830184611e77565b9695505050505050565b60008251612294818460208701611e4b565b9190910192915050565b602081526000610d7b6020830184611e7756fe455448526567697374726172436f6e74726f6c6c65723a204661696c656420746f20736574205265636f7264a2646970667358221220dcbf0cd80517c372ed2d45447b0726a625c09cdd3196a04994470a6d5ca25b2d64736f6c634300080d0033",
  "devdoc": {
    "details": "A registrar controller for registering and renewing names at fixed cost.",
    "kind": "dev",
    "methods": {
      "owner()": {
        "details": "Returns the address of the current owner."
      },
      "renounceOwnership()": {
        "details": "Leaves the contract without owner. It will not be possible to call `onlyOwner` functions anymore. Can only be called by the current owner. NOTE: Renouncing ownership will leave the contract without an owner, thereby removing any functionality that is only available to the owner."
      },
      "transferOwnership(address)": {
        "details": "Transfers ownership of the contract to a new account (`newOwner`). Can only be called by the current owner."
      }
    },
    "version": 1
  },
  "userdoc": {
    "kind": "user",
    "methods": {},
    "version": 1
  },
  "storageLayout": {
    "storage": [
      {
        "astId": 545,
        "contract": "contracts/ethregistrar/ETHRegistrarController.sol:ETHRegistrarController",
        "label": "_owner",
        "offset": 0,
        "slot": "0",
        "type": "t_address"
      },
      {
        "astId": 10344,
        "contract": "contracts/ethregistrar/ETHRegistrarController.sol:ETHRegistrarController",
        "label": "commitments",
        "offset": 0,
        "slot": "1",
        "type": "t_mapping(t_bytes32,t_uint256)"
      }
    ],
    "types": {
      "t_address": {
        "encoding": "inplace",
        "label": "address",
        "numberOfBytes": "20"
      },
      "t_bytes32": {
        "encoding": "inplace",
        "label": "bytes32",
        "numberOfBytes": "32"
      },
      "t_mapping(t_bytes32,t_uint256)": {
        "encoding": "mapping",
        "key": "t_bytes32",
        "label": "mapping(bytes32 => uint256)",
        "numberOfBytes": "32",
        "value": "t_uint256"
      },
      "t_uint256": {
        "encoding": "inplace",
        "label": "uint256",
        "numberOfBytes": "32"
      }
    }
  }
}