{
  "address": "0x268160619F51e6542F9920A3235139559DF0439d",
  "abi": [
    {
      "inputs": [
        {
          "internalType": "contract ENS",
          "name": "_ens",
          "type": "address"
        },
        {
          "internalType": "contract IBaseRegistrar",
          "name": "_registrar",
          "type": "address"
        },
        {
          "internalType": "contract IMetadataService",
          "name": "_metadataService",
          "type": "address"
        }
      ],
      "stateMutability": "nonpayable",
      "type": "constructor"
    },
    {
      "inputs": [],
      "name": "CannotUpgrade",
      "type": "error"
    },
    {
      "inputs": [],
      "name": "IncompatibleParent",
      "type": "error"
    },
    {
      "inputs": [
        {
          "internalType": "address",
          "name": "owner",
          "type": "address"
        }
      ],
      "name": "IncorrectTargetOwner",
      "type": "error"
    },
    {
      "inputs": [],
      "name": "IncorrectTokenType",
      "type": "error"
    },
    {
      "inputs": [
        {
          "internalType": "bytes32",
          "name": "labelHash",
          "type": "bytes32"
        },
        {
          "internalType": "bytes32",
          "name": "expectedLabelhash",
          "type": "bytes32"
        }
      ],
      "name": "LabelMismatch",
      "type": "error"
    },
    {
      "inputs": [
        {
          "internalType": "string",
          "name": "label",
          "type": "string"
        }
      ],
      "name": "LabelTooLong",
      "type": "error"
    },
    {
      "inputs": [],
      "name": "LabelTooShort",
      "type": "error"
    },
    {
      "inputs": [],
      "name": "NameNotFound",
      "type": "error"
    },
    {
      "inputs": [
        {
          "internalType": "bytes32",
          "name": "node",
          "type": "bytes32"
        }
      ],
      "name": "OperationProhibited",
      "type": "error"
    },
    {
      "inputs": [
        {
          "internalType": "bytes32",
          "name": "node",
          "type": "bytes32"
        },
        {
          "internalType": "address",
          "name": "addr",
          "type": "address"
        }
      ],
      "name": "Unauthorised",
      "type": "error"
    },
    {
      "anonymous": false,
      "inputs": [
        {
          "indexed": true,
          "internalType": "address",
          "name": "account",
          "type": "address"
        },
        {
          "indexed": true,
          "internalType": "address",
          "name": "operator",
          "type": "address"
        },
        {
          "indexed": false,
          "internalType": "bool",
          "name": "approved",
          "type": "bool"
        }
      ],
      "name": "ApprovalForAll",
      "type": "event"
    },
    {
      "anonymous": false,
      "inputs": [
        {
          "indexed": true,
          "internalType": "address",
          "name": "controller",
          "type": "address"
        },
        {
          "indexed": false,
          "internalType": "bool",
          "name": "active",
          "type": "bool"
        }
      ],
      "name": "ControllerChanged",
      "type": "event"
    },
    {
      "anonymous": false,
      "inputs": [
        {
          "indexed": true,
          "internalType": "bytes32",
          "name": "node",
          "type": "bytes32"
        },
        {
          "indexed": false,
          "internalType": "uint32",
          "name": "fuses",
          "type": "uint32"
        },
        {
          "indexed": false,
          "internalType": "uint64",
          "name": "expiry",
          "type": "uint64"
        }
      ],
      "name": "FusesSet",
      "type": "event"
    },
    {
      "anonymous": false,
      "inputs": [
        {
          "indexed": true,
          "internalType": "bytes32",
          "name": "node",
          "type": "bytes32"
        },
        {
          "indexed": false,
          "internalType": "address",
          "name": "owner",
          "type": "address"
        }
      ],
      "name": "NameUnwrapped",
      "type": "event"
    },
    {
      "anonymous": false,
      "inputs": [
        {
          "indexed": true,
          "internalType": "bytes32",
          "name": "node",
          "type": "bytes32"
        },
        {
          "indexed": false,
          "internalType": "bytes",
          "name": "name",
          "type": "bytes"
        },
        {
          "indexed": false,
          "internalType": "address",
          "name": "owner",
          "type": "address"
        },
        {
          "indexed": false,
          "internalType": "uint32",
          "name": "fuses",
          "type": "uint32"
        },
        {
          "indexed": false,
          "internalType": "uint64",
          "name": "expiry",
          "type": "uint64"
        }
      ],
      "name": "NameWrapped",
      "type": "event"
    },
    {
      "anonymous": false,
      "inputs": [
        {
          "indexed": true,
          "internalType": "address",
          "name": "previousOwner",
          "type": "address"
        },
        {
          "indexed": true,
          "internalType": "address",
          "name": "newOwner",
          "type": "address"
        }
      ],
      "name": "OwnershipTransferred",
      "type": "event"
    },
    {
      "anonymous": false,
      "inputs": [
        {
          "indexed": true,
          "internalType": "address",
          "name": "operator",
          "type": "address"
        },
        {
          "indexed": true,
          "internalType": "address",
          "name": "from",
          "type": "address"
        },
        {
          "indexed": true,
          "internalType": "address",
          "name": "to",
          "type": "address"
        },
        {
          "indexed": false,
          "internalType": "uint256[]",
          "name": "ids",
          "type": "uint256[]"
        },
        {
          "indexed": false,
          "internalType": "uint256[]",
          "name": "values",
          "type": "uint256[]"
        }
      ],
      "name": "TransferBatch",
      "type": "event"
    },
    {
      "anonymous": false,
      "inputs": [
        {
          "indexed": true,
          "internalType": "address",
          "name": "operator",
          "type": "address"
        },
        {
          "indexed": true,
          "internalType": "address",
          "name": "from",
          "type": "address"
        },
        {
          "indexed": true,
          "internalType": "address",
          "name": "to",
          "type": "address"
        },
        {
          "indexed": false,
          "internalType": "uint256",
          "name": "id",
          "type": "uint256"
        },
        {
          "indexed": false,
          "internalType": "uint256",
          "name": "value",
          "type": "uint256"
        }
      ],
      "name": "TransferSingle",
      "type": "event"
    },
    {
      "anonymous": false,
      "inputs": [
        {
          "indexed": false,
          "internalType": "string",
          "name": "value",
          "type": "string"
        },
        {
          "indexed": true,
          "internalType": "uint256",
          "name": "id",
          "type": "uint256"
        }
      ],
      "name": "URI",
      "type": "event"
    },
    {
      "inputs": [
        {
          "internalType": "uint256",
          "name": "",
          "type": "uint256"
        }
      ],
      "name": "_tokens",
      "outputs": [
        {
          "internalType": "uint256",
          "name": "",
          "type": "uint256"
        }
      ],
      "stateMutability": "view",
      "type": "function"
    },
    {
      "inputs": [
        {
          "internalType": "bytes32",
          "name": "node",
          "type": "bytes32"
        },
        {
          "internalType": "uint32",
          "name": "fuseMask",
          "type": "uint32"
        }
      ],
      "name": "allFusesBurned",
      "outputs": [
        {
          "internalType": "bool",
          "name": "",
          "type": "bool"
        }
      ],
      "stateMutability": "view",
      "type": "function"
    },
    {
      "inputs": [
        {
          "internalType": "address",
          "name": "account",
          "type": "address"
        },
        {
          "internalType": "uint256",
          "name": "id",
          "type": "uint256"
        }
      ],
      "name": "balanceOf",
      "outputs": [
        {
          "internalType": "uint256",
          "name": "",
          "type": "uint256"
        }
      ],
      "stateMutability": "view",
      "type": "function"
    },
    {
      "inputs": [
        {
          "internalType": "address[]",
          "name": "accounts",
          "type": "address[]"
        },
        {
          "internalType": "uint256[]",
          "name": "ids",
          "type": "uint256[]"
        }
      ],
      "name": "balanceOfBatch",
      "outputs": [
        {
          "internalType": "uint256[]",
          "name": "",
          "type": "uint256[]"
        }
      ],
      "stateMutability": "view",
      "type": "function"
    },
    {
      "inputs": [
        {
          "internalType": "address",
          "name": "",
          "type": "address"
        }
      ],
      "name": "controllers",
      "outputs": [
        {
          "internalType": "bool",
          "name": "",
          "type": "bool"
        }
      ],
      "stateMutability": "view",
      "type": "function"
    },
    {
      "inputs": [],
      "name": "ens",
      "outputs": [
        {
          "internalType": "contract ENS",
          "name": "",
          "type": "address"
        }
      ],
      "stateMutability": "view",
      "type": "function"
    },
    {
      "inputs": [
        {
          "internalType": "uint256",
          "name": "tokenId",
          "type": "uint256"
        }
      ],
      "name": "getData",
      "outputs": [
        {
          "internalType": "address",
          "name": "owner",
          "type": "address"
        },
        {
          "internalType": "uint32",
          "name": "fuses",
          "type": "uint32"
        },
        {
          "internalType": "uint64",
          "name": "expiry",
          "type": "uint64"
        }
      ],
      "stateMutability": "view",
      "type": "function"
    },
    {
      "inputs": [
        {
          "internalType": "bytes32",
          "name": "node",
          "type": "bytes32"
        }
      ],
      "name": "getFuses",
      "outputs": [
        {
          "internalType": "uint32",
          "name": "fuses",
          "type": "uint32"
        },
        {
          "internalType": "uint64",
          "name": "expiry",
          "type": "uint64"
        }
      ],
      "stateMutability": "view",
      "type": "function"
    },
    {
      "inputs": [
        {
          "internalType": "address",
          "name": "account",
          "type": "address"
        },
        {
          "internalType": "address",
          "name": "operator",
          "type": "address"
        }
      ],
      "name": "isApprovedForAll",
      "outputs": [
        {
          "internalType": "bool",
          "name": "",
          "type": "bool"
        }
      ],
      "stateMutability": "view",
      "type": "function"
    },
    {
      "inputs": [
        {
          "internalType": "bytes32",
          "name": "node",
          "type": "bytes32"
        },
        {
          "internalType": "address",
          "name": "addr",
          "type": "address"
        }
      ],
      "name": "isTokenOwnerOrApproved",
      "outputs": [
        {
          "internalType": "bool",
          "name": "",
          "type": "bool"
        }
      ],
      "stateMutability": "view",
      "type": "function"
    },
    {
      "inputs": [],
      "name": "metadataService",
      "outputs": [
        {
          "internalType": "contract IMetadataService",
          "name": "",
          "type": "address"
        }
      ],
      "stateMutability": "view",
      "type": "function"
    },
    {
      "inputs": [
        {
          "internalType": "bytes32",
          "name": "",
          "type": "bytes32"
        }
      ],
      "name": "names",
      "outputs": [
        {
          "internalType": "bytes",
          "name": "",
          "type": "bytes"
        }
      ],
      "stateMutability": "view",
      "type": "function"
    },
    {
      "inputs": [
        {
          "internalType": "address",
          "name": "to",
          "type": "address"
        },
        {
          "internalType": "address",
          "name": "",
          "type": "address"
        },
        {
          "internalType": "uint256",
          "name": "tokenId",
          "type": "uint256"
        },
        {
          "internalType": "bytes",
          "name": "data",
          "type": "bytes"
        }
      ],
      "name": "onERC721Received",
      "outputs": [
        {
          "internalType": "bytes4",
          "name": "",
          "type": "bytes4"
        }
      ],
      "stateMutability": "nonpayable",
      "type": "function"
    },
    {
      "inputs": [],
      "name": "owner",
      "outputs": [
        {
          "internalType": "address",
          "name": "",
          "type": "address"
        }
      ],
      "stateMutability": "view",
      "type": "function"
    },
    {
      "inputs": [
        {
          "internalType": "uint256",
          "name": "id",
          "type": "uint256"
        }
      ],
      "name": "ownerOf",
      "outputs": [
        {
          "internalType": "address",
          "name": "owner",
          "type": "address"
        }
      ],
      "stateMutability": "view",
      "type": "function"
    },
    {
      "inputs": [
        {
          "internalType": "string",
          "name": "label",
          "type": "string"
        },
        {
          "internalType": "address",
          "name": "wrappedOwner",
          "type": "address"
        },
        {
          "internalType": "uint256",
          "name": "duration",
          "type": "uint256"
        },
        {
          "internalType": "address",
          "name": "resolver",
          "type": "address"
        },
        {
          "internalType": "uint32",
          "name": "fuses",
          "type": "uint32"
        },
        {
          "internalType": "uint64",
          "name": "expiry",
          "type": "uint64"
        }
      ],
      "name": "registerAndWrapETH2LD",
      "outputs": [
        {
          "internalType": "uint256",
          "name": "registrarExpiry",
          "type": "uint256"
        }
      ],
      "stateMutability": "nonpayable",
      "type": "function"
    },
    {
      "inputs": [],
      "name": "registrar",
      "outputs": [
        {
          "internalType": "contract IBaseRegistrar",
          "name": "",
          "type": "address"
        }
      ],
      "stateMutability": "view",
      "type": "function"
    },
    {
      "inputs": [
        {
          "internalType": "uint256",
          "name": "tokenId",
          "type": "uint256"
        },
        {
          "internalType": "uint256",
          "name": "duration",
          "type": "uint256"
        },
        {
          "internalType": "uint64",
          "name": "expiry",
          "type": "uint64"
        }
      ],
      "name": "renew",
      "outputs": [
        {
          "internalType": "uint256",
          "name": "expires",
          "type": "uint256"
        }
      ],
      "stateMutability": "nonpayable",
      "type": "function"
    },
    {
      "inputs": [],
      "name": "renounceOwnership",
      "outputs": [],
      "stateMutability": "nonpayable",
      "type": "function"
    },
    {
      "inputs": [
        {
          "internalType": "address",
          "name": "from",
          "type": "address"
        },
        {
          "internalType": "address",
          "name": "to",
          "type": "address"
        },
        {
          "internalType": "uint256[]",
          "name": "ids",
          "type": "uint256[]"
        },
        {
          "internalType": "uint256[]",
          "name": "amounts",
          "type": "uint256[]"
        },
        {
          "internalType": "bytes",
          "name": "data",
          "type": "bytes"
        }
      ],
      "name": "safeBatchTransferFrom",
      "outputs": [],
      "stateMutability": "nonpayable",
      "type": "function"
    },
    {
      "inputs": [
        {
          "internalType": "address",
          "name": "from",
          "type": "address"
        },
        {
          "internalType": "address",
          "name": "to",
          "type": "address"
        },
        {
          "internalType": "uint256",
          "name": "id",
          "type": "uint256"
        },
        {
          "internalType": "uint256",
          "name": "amount",
          "type": "uint256"
        },
        {
          "internalType": "bytes",
          "name": "data",
          "type": "bytes"
        }
      ],
      "name": "safeTransferFrom",
      "outputs": [],
      "stateMutability": "nonpayable",
      "type": "function"
    },
    {
      "inputs": [
        {
          "internalType": "address",
          "name": "operator",
          "type": "address"
        },
        {
          "internalType": "bool",
          "name": "approved",
          "type": "bool"
        }
      ],
      "name": "setApprovalForAll",
      "outputs": [],
      "stateMutability": "nonpayable",
      "type": "function"
    },
    {
      "inputs": [
        {
          "internalType": "bytes32",
          "name": "parentNode",
          "type": "bytes32"
        },
        {
          "internalType": "bytes32",
          "name": "labelhash",
          "type": "bytes32"
        },
        {
          "internalType": "uint32",
          "name": "fuses",
          "type": "uint32"
        },
        {
          "internalType": "uint64",
          "name": "expiry",
          "type": "uint64"
        }
      ],
      "name": "setChildFuses",
      "outputs": [],
      "stateMutability": "nonpayable",
      "type": "function"
    },
    {
      "inputs": [
        {
          "internalType": "address",
          "name": "controller",
          "type": "address"
        },
        {
          "internalType": "bool",
          "name": "active",
          "type": "bool"
        }
      ],
      "name": "setController",
      "outputs": [],
      "stateMutability": "nonpayable",
      "type": "function"
    },
    {
      "inputs": [
        {
          "internalType": "bytes32",
          "name": "node",
          "type": "bytes32"
        },
        {
          "internalType": "uint32",
          "name": "fuses",
          "type": "uint32"
        }
      ],
      "name": "setFuses",
      "outputs": [
        {
          "internalType": "uint32",
          "name": "",
          "type": "uint32"
        }
      ],
      "stateMutability": "nonpayable",
      "type": "function"
    },
    {
      "inputs": [
        {
          "internalType": "contract IMetadataService",
          "name": "_newMetadataService",
          "type": "address"
        }
      ],
      "name": "setMetadataService",
      "outputs": [],
      "stateMutability": "nonpayable",
      "type": "function"
    },
    {
      "inputs": [
        {
          "internalType": "bytes32",
          "name": "node",
          "type": "bytes32"
        },
        {
          "internalType": "address",
          "name": "owner",
          "type": "address"
        },
        {
          "internalType": "address",
          "name": "resolver",
          "type": "address"
        },
        {
          "internalType": "uint64",
          "name": "ttl",
          "type": "uint64"
        }
      ],
      "name": "setRecord",
      "outputs": [],
      "stateMutability": "nonpayable",
      "type": "function"
    },
    {
      "inputs": [
        {
          "internalType": "bytes32",
          "name": "node",
          "type": "bytes32"
        },
        {
          "internalType": "address",
          "name": "resolver",
          "type": "address"
        }
      ],
      "name": "setResolver",
      "outputs": [],
      "stateMutability": "nonpayable",
      "type": "function"
    },
    {
      "inputs": [
        {
          "internalType": "bytes32",
          "name": "parentNode",
          "type": "bytes32"
        },
        {
          "internalType": "string",
          "name": "label",
          "type": "string"
        },
        {
          "internalType": "address",
          "name": "newOwner",
          "type": "address"
        },
        {
          "internalType": "uint32",
          "name": "fuses",
          "type": "uint32"
        },
        {
          "internalType": "uint64",
          "name": "expiry",
          "type": "uint64"
        }
      ],
      "name": "setSubnodeOwner",
      "outputs": [
        {
          "internalType": "bytes32",
          "name": "node",
          "type": "bytes32"
        }
      ],
      "stateMutability": "nonpayable",
      "type": "function"
    },
    {
      "inputs": [
        {
          "internalType": "bytes32",
          "name": "parentNode",
          "type": "bytes32"
        },
        {
          "internalType": "string",
          "name": "label",
          "type": "string"
        },
        {
          "internalType": "address",
          "name": "newOwner",
          "type": "address"
        },
        {
          "internalType": "address",
          "name": "resolver",
          "type": "address"
        },
        {
          "internalType": "uint64",
          "name": "ttl",
          "type": "uint64"
        },
        {
          "internalType": "uint32",
          "name": "fuses",
          "type": "uint32"
        },
        {
          "internalType": "uint64",
          "name": "expiry",
          "type": "uint64"
        }
      ],
      "name": "setSubnodeRecord",
      "outputs": [],
      "stateMutability": "nonpayable",
      "type": "function"
    },
    {
      "inputs": [
        {
          "internalType": "bytes32",
          "name": "node",
          "type": "bytes32"
        },
        {
          "internalType": "uint64",
          "name": "ttl",
          "type": "uint64"
        }
      ],
      "name": "setTTL",
      "outputs": [],
      "stateMutability": "nonpayable",
      "type": "function"
    },
    {
      "inputs": [
        {
          "internalType": "contract INameWrapperUpgrade",
          "name": "_upgradeAddress",
          "type": "address"
        }
      ],
      "name": "setUpgradeContract",
      "outputs": [],
      "stateMutability": "nonpayable",
      "type": "function"
    },
    {
      "inputs": [
        {
          "internalType": "bytes4",
          "name": "interfaceId",
          "type": "bytes4"
        }
      ],
      "name": "supportsInterface",
      "outputs": [
        {
          "internalType": "bool",
          "name": "",
          "type": "bool"
        }
      ],
      "stateMutability": "view",
      "type": "function"
    },
    {
      "inputs": [
        {
          "internalType": "address",
          "name": "newOwner",
          "type": "address"
        }
      ],
      "name": "transferOwnership",
      "outputs": [],
      "stateMutability": "nonpayable",
      "type": "function"
    },
    {
      "inputs": [
        {
          "internalType": "bytes32",
          "name": "parentNode",
          "type": "bytes32"
        },
        {
          "internalType": "bytes32",
          "name": "labelhash",
          "type": "bytes32"
        },
        {
          "internalType": "address",
          "name": "newController",
          "type": "address"
        }
      ],
      "name": "unwrap",
      "outputs": [],
      "stateMutability": "nonpayable",
      "type": "function"
    },
    {
      "inputs": [
        {
          "internalType": "bytes32",
          "name": "labelhash",
          "type": "bytes32"
        },
        {
          "internalType": "address",
          "name": "newRegistrant",
          "type": "address"
        },
        {
          "internalType": "address",
          "name": "newController",
          "type": "address"
        }
      ],
      "name": "unwrapETH2LD",
      "outputs": [],
      "stateMutability": "nonpayable",
      "type": "function"
    },
    {
      "inputs": [
        {
          "internalType": "bytes32",
          "name": "parentNode",
          "type": "bytes32"
        },
        {
          "internalType": "string",
          "name": "label",
          "type": "string"
        },
        {
          "internalType": "address",
          "name": "wrappedOwner",
          "type": "address"
        },
        {
          "internalType": "address",
          "name": "resolver",
          "type": "address"
        }
      ],
      "name": "upgrade",
      "outputs": [],
      "stateMutability": "nonpayable",
      "type": "function"
    },
    {
      "inputs": [],
      "name": "upgradeContract",
      "outputs": [
        {
          "internalType": "contract INameWrapperUpgrade",
          "name": "",
          "type": "address"
        }
      ],
      "stateMutability": "view",
      "type": "function"
    },
    {
      "inputs": [
        {
          "internalType": "string",
          "name": "label",
          "type": "string"
        },
        {
          "internalType": "address",
          "name": "wrappedOwner",
          "type": "address"
        },
        {
          "internalType": "address",
          "name": "resolver",
          "type": "address"
        }
      ],
      "name": "upgradeETH2LD",
      "outputs": [],
      "stateMutability": "nonpayable",
      "type": "function"
    },
    {
      "inputs": [
        {
          "internalType": "uint256",
          "name": "tokenId",
          "type": "uint256"
        }
      ],
      "name": "uri",
      "outputs": [
        {
          "internalType": "string",
          "name": "",
          "type": "string"
        }
      ],
      "stateMutability": "view",
      "type": "function"
    },
    {
      "inputs": [
        {
          "internalType": "bytes",
          "name": "name",
          "type": "bytes"
        },
        {
          "internalType": "address",
          "name": "wrappedOwner",
          "type": "address"
        },
        {
          "internalType": "address",
          "name": "resolver",
          "type": "address"
        }
      ],
      "name": "wrap",
      "outputs": [],
      "stateMutability": "nonpayable",
      "type": "function"
    },
    {
      "inputs": [
        {
          "internalType": "string",
          "name": "label",
          "type": "string"
        },
        {
          "internalType": "address",
          "name": "wrappedOwner",
          "type": "address"
        },
        {
          "internalType": "uint32",
          "name": "fuses",
          "type": "uint32"
        },
        {
          "internalType": "uint64",
          "name": "expiry",
          "type": "uint64"
        },
        {
          "internalType": "address",
          "name": "resolver",
          "type": "address"
        }
      ],
      "name": "wrapETH2LD",
      "outputs": [
        {
          "internalType": "uint64",
          "name": "",
          "type": "uint64"
        }
      ],
      "stateMutability": "nonpayable",
      "type": "function"
    }
  ],
  "transactionHash": "0x1cc64036769b574a201b03af4dd5b1238f373b39c9c62411d557b8c7e240eca1",
  "args": [
    "0xA32505eE9dAEF7f6189e699fD0f6983af8C97Cac",
    "0xd4825345cCfb2A3dCB310025770cdf722f660677",
    "0xF139E524500BF8368B852A91F70a5e5475A3fDd4"
  ],
  "numDeployments": 1,
  "solcInputHash": "bfe2f3f8b503ffc082ee529a1f4da503",
  "bytecode": "0x60c06040523480156200001157600080fd5b506040516200606b3803806200606b833981016040819052620000349162000299565b6200003f336200018a565b6001600160a01b0383811660805282811660a052600480546001600160a01b031916918316919091179055600163ffffffbf60a01b03197fafa26c20e8b3d9a2853d642cfe1021dae26242ffedfac91c97aab212c1a4b93b8190557fa6eef7e35abe7026729641147f7915573c7e97b47efa546f5f6e3230263bcb49556040805180820190915260018152600060208083018281529180526005905290516200010a917f05b8ccbb9d4d8fb16ea74ce3c29a41f1b461fbdaff4714a0d9a8eb05499746bc91620001da565b50604080518082019091526005808252626cae8d60e31b60208084019182527f93cdeb708b7545dc668eb9280176169d1c33cfd8ed6f04690a0bcc88a93fc4ae60005291909152905162000180917fd99130487705d6970718a0cee91984b61956f8a1db3482bba7e6bf0131adb01f91620001da565b5050505062000329565b600080546001600160a01b038381166001600160a01b0319831681178455604051919092169283917f8be0079c531659141344cd1fd0a4f28419497f9722a3daafe3b4186f6b6457e09190a35050565b828054620001e890620002ed565b90600052602060002090601f0160209004810192826200020c576000855562000257565b82601f106200022757805160ff191683800117855562000257565b8280016001018555821562000257579182015b82811115620002575782518255916020019190600101906200023a565b506200026592915062000269565b5090565b5b808211156200026557600081556001016200026a565b6001600160a01b03811681146200029657600080fd5b50565b600080600060608486031215620002af57600080fd5b8351620002bc8162000280565b6020850151909350620002cf8162000280565b6040850151909250620002e28162000280565b809150509250925092565b600181811c908216806200030257607f821691505b6020821081036200032357634e487b7160e01b600052602260045260246000fd5b50919050565b60805160a051615c43620004286000396000818161046701528181610abd01528181610bb4015281816116f501528181611b7801528181611da001528181611edd01528181612180015281816122fc015281816134cd015281816135c4015281816136e601528181613775015261450c0152600081816104b401528181610a4301528181610d9801528181610f0b0152818161107a015281816111500152818161121b0152818161221e0152818161239a0152818161258101528181612703015281816127c10152818161296401528181612e0901528181612f0001528181612fe201528181613074015281816139fe01526140100152615c436000f3fe608060405234801561001057600080fd5b50600436106102dd5760003560e01c80638b4dfa7511610186578063da8c229e116100e3578063ed70554d11610097578063f2fde38b11610071578063f2fde38b1461071e578063f44779b914610731578063f9547a9e1461074457600080fd5b8063ed70554d146106d8578063ee7eba78146106f8578063f242432a1461070b57600080fd5b8063e72bf00f116100c8578063e72bf00f14610676578063e985e9c514610689578063eb8ae530146106c557600080fd5b8063da8c229e14610640578063e0dba60f1461066357600080fd5b8063b6bcad261161013a578063c658e0861161011f578063c658e08614610607578063cf4088231461061a578063d8c9921a1461062d57600080fd5b8063b6bcad26146105cc578063c20a2eb0146105df57600080fd5b80639f56dac61161016b5780639f56dac614610593578063a22cb465146105a6578063adf4960a146105b957600080fd5b80638b4dfa751461056f5780638da5cb5b1461058257600080fd5b806324c1af441161023f5780634ac07f41116101f35780636352211e116101cd5780636352211e146105415780636846f2f714610554578063715018a61461056757600080fd5b80634ac07f41146104d65780634e1273f41461050e578063530954671461052e57600080fd5b80632eb2c2d6116102245780632eb2c2d61461048957806333c69ea91461049c5780633f15457f146104af57600080fd5b806324c1af441461044f5780632b20e3971461046257600080fd5b8063150b7a02116102965780631896f70a1161027b5780631896f70a146103fe5780631f4e15041461041157806320c38e2b1461043c57600080fd5b8063150b7a02146103a75780631534e177146103eb57600080fd5b806301ffc9a7116102c757806301ffc9a71461034f5780630e89341c1461037257806314ab90381461039257600080fd5b8062fdd58e146102e25780630178fe3f14610308575b600080fd5b6102f56102f0366004614b9e565b610770565b6040519081526020015b60405180910390f35b61031b610316366004614bca565b610831565b604080516001600160a01b03909416845263ffffffff909216602084015267ffffffffffffffff16908201526060016102ff565b61036261035d366004614c11565b610868565b60405190151581526020016102ff565b610385610380366004614bca565b61090a565b6040516102ff9190614c8d565b6103a56103a0366004614cbd565b610997565b005b6103ba6103b5366004614d32565b610ab0565b6040517fffffffff0000000000000000000000000000000000000000000000000000000090911681526020016102ff565b6103a56103f9366004614da5565b610c58565b6103a561040c366004614dc2565b610cec565b600654610424906001600160a01b031681565b6040516001600160a01b0390911681526020016102ff565b61038561044a366004614bca565b610dc7565b6103a561045d366004614ee6565b610e61565b6104247f000000000000000000000000000000000000000000000000000000000000000081565b6103a5610497366004615019565b611293565b6103a56104aa3660046150c7565b611631565b6104247f000000000000000000000000000000000000000000000000000000000000000081565b6104e96104e4366004614bca565b611816565b6040805163ffffffff909316835267ffffffffffffffff9091166020830152016102ff565b61052161051c36600461510d565b611924565b6040516102ff919061520b565b600454610424906001600160a01b031681565b61042461054f366004614bca565b611a62565b6102f561056236600461521e565b611a6d565b6103a5611c26565b6103a561057d366004615253565b611c8c565b6000546001600160a01b0316610424565b6102f56105a1366004615295565b611e02565b6103a56105b4366004615328565b611fa6565b6103626105c7366004615356565b6120ae565b6103a56105da366004614da5565b6120d3565b6105f26105ed366004615356565b6123f9565b60405163ffffffff90911681526020016102ff565b6102f5610615366004615379565b6124c5565b6103a56106283660046153f8565b6128a2565b6103a561063b366004615430565b6129f2565b61036261064e366004614da5565b60036020526000908152604090205460ff1681565b6103a5610671366004615328565b612ada565b6103a561068436600461545e565b612bb2565b6103626106973660046154c6565b6001600160a01b03918216600090815260026020908152604080832093909416825291909152205460ff1690565b6103a56106d336600461545e565b612cc3565b6102f56106e6366004614bca565b60016020526000908152604090205481565b6103a56107063660046154f4565b61311b565b6103a5610719366004615568565b613211565b6103a561072c366004614da5565b613346565b61036261073f366004614dc2565b613425565b6107576107523660046155d1565b613480565b60405167ffffffffffffffff90911681526020016102ff565b60006001600160a01b0383166107f35760405162461bcd60e51b815260206004820152602b60248201527f455243313135353a2062616c616e636520717565727920666f7220746865207a60448201527f65726f206164647265737300000000000000000000000000000000000000000060648201526084015b60405180910390fd5b60006107fe83610831565b50509050836001600160a01b0316816001600160a01b03160361082557600191505061082b565b60009150505b92915050565b6000818152600160205260408120549060c082901c82428210156108585760009250610860565b60a081901c92505b509193909250565b60007fffffffff0000000000000000000000000000000000000000000000000000000082167f71bc02720000000000000000000000000000000000000000000000000000000014806108fb57507fffffffff0000000000000000000000000000000000000000000000000000000082167f150b7a0200000000000000000000000000000000000000000000000000000000145b8061082b575061082b8261382d565b600480546040517f0e89341c0000000000000000000000000000000000000000000000000000000081529182018390526060916001600160a01b0390911690630e89341c90602401600060405180830381865afa15801561096f573d6000803e3d6000fd5b505050506040513d6000823e601f3d908101601f1916820160405261082b919081019061565b565b816109a28133613425565b6109c85760405163168ab55d60e31b8152600481018290523360248201526044016107ea565b82601060006109d683610831565b5091505063ffffffff8282161615610a045760405163a2a7201360e01b8152600481018490526024016107ea565b6040517f14ab90380000000000000000000000000000000000000000000000000000000081526004810187905267ffffffffffffffff861660248201527f00000000000000000000000000000000000000000000000000000000000000006001600160a01b0316906314ab9038906044015b600060405180830381600087803b158015610a9057600080fd5b505af1158015610aa4573d6000803e3d6000fd5b50505050505050505050565b6000336001600160a01b037f00000000000000000000000000000000000000000000000000000000000000001614610b14576040517f1931a53800000000000000000000000000000000000000000000000000000000815260040160405180910390fd5b600080808080610b26878901896156dd565b84516020860120949950929750909550935091508990808214610b7f576040517fc65c3ccc00000000000000000000000000000000000000000000000000000000815260048101829052602481018390526044016107ea565b6040517f28ed4f6c000000000000000000000000000000000000000000000000000000008152600481018390523060248201527f00000000000000000000000000000000000000000000000000000000000000006001600160a01b0316906328ed4f6c90604401600060405180830381600087803b158015610c0057600080fd5b505af1158015610c14573d6000803e3d6000fd5b50505050610c258787878787613910565b507f150b7a02000000000000000000000000000000000000000000000000000000009d9c50505050505050505050505050565b6000546001600160a01b03163314610cb25760405162461bcd60e51b815260206004820181905260248201527f4f776e61626c653a2063616c6c6572206973206e6f7420746865206f776e657260448201526064016107ea565b600480547fffffffffffffffffffffffff0000000000000000000000000000000000000000166001600160a01b0392909216919091179055565b81610cf78133613425565b610d1d5760405163168ab55d60e31b8152600481018290523360248201526044016107ea565b8260086000610d2b83610831565b5091505063ffffffff8282161615610d595760405163a2a7201360e01b8152600481018490526024016107ea565b6040517f1896f70a000000000000000000000000000000000000000000000000000000008152600481018790526001600160a01b0386811660248301527f00000000000000000000000000000000000000000000000000000000000000001690631896f70a90604401610a76565b60056020526000908152604090208054610de090615755565b80601f0160208091040260200160405190810160405280929190818152602001828054610e0c90615755565b8015610e595780601f10610e2e57610100808354040283529160200191610e59565b820191906000526020600020905b815481529060010190602001808311610e3c57829003601f168201915b505050505081565b86610e6c8133613425565b610e925760405163168ab55d60e31b8152600481018290523360248201526044016107ea565b8787805190602001206000610ece8383604080516020808201949094528082019290925280518083038201815260609092019052805191012090565b6040517f02571be3000000000000000000000000000000000000000000000000000000008152600481018290529091506000906001600160a01b037f000000000000000000000000000000000000000000000000000000000000000016906302571be390602401602060405180830381865afa158015610f52573d6000803e3d6000fd5b505050506040513d601f19601f82011682018060405250810190610f7691906157a8565b90506001600160a01b038116610fc0576000610f9185610831565b509150506020811615610fba5760405163a2a7201360e01b8152600481018690526024016107ea565b50610ff6565b6000610fcb83610831565b509150506040811615610ff45760405163a2a7201360e01b8152600481018690526024016107ea565b505b8a5160208c012060006110308e83604080516020808201949094528082019290925280518083038201815260609092019052805191012090565b905061103d8e828a613a67565b6040517f02571be300000000000000000000000000000000000000000000000000000000815260048101859052909a503092506001600160a01b037f00000000000000000000000000000000000000000000000000000000000000001691506302571be390602401602060405180830381865afa1580156110c2573d6000803e3d6000fd5b505050506040513d601f19601f820116820180604052508101906110e691906157a8565b6001600160a01b0316146111bf576040517f5ef2c7f0000000000000000000000000000000000000000000000000000000008152600481018f9052602481018390523060448201526001600160a01b038c8116606483015267ffffffffffffffff8c1660848301527f00000000000000000000000000000000000000000000000000000000000000001690635ef2c7f09060a401600060405180830381600087803b15801561119457600080fd5b505af11580156111a8573d6000803e3d6000fd5b505050506111ba8e828f8f8d8d613aa6565b611283565b6040517f5ef2c7f0000000000000000000000000000000000000000000000000000000008152600481018f9052602481018390523060448201526001600160a01b038c8116606483015267ffffffffffffffff8c1660848301527f00000000000000000000000000000000000000000000000000000000000000001690635ef2c7f09060a401600060405180830381600087803b15801561125f57600080fd5b505af1158015611273573d6000803e3d6000fd5b50505050611283818d8b8b613b60565b5050505050505050505050505050565b815183511461130a5760405162461bcd60e51b815260206004820152602860248201527f455243313135353a2069647320616e6420616d6f756e7473206c656e6774682060448201527f6d69736d6174636800000000000000000000000000000000000000000000000060648201526084016107ea565b6001600160a01b0384166113865760405162461bcd60e51b815260206004820152602560248201527f455243313135353a207472616e7366657220746f20746865207a65726f20616460448201527f647265737300000000000000000000000000000000000000000000000000000060648201526084016107ea565b6001600160a01b0385163314806113c057506001600160a01b038516600090815260026020908152604080832033845290915290205460ff165b6114325760405162461bcd60e51b815260206004820152603260248201527f455243313135353a207472616e736665722063616c6c6572206973206e6f742060448201527f6f776e6572206e6f7220617070726f766564000000000000000000000000000060648201526084016107ea565b60005b83518110156115c4576000848281518110611452576114526157c5565b602002602001015190506000848381518110611470576114706157c5565b60200260200101519050600080600061148885610831565b925092509250611499826004161590565b6114b95760405163a2a7201360e01b8152600481018690526024016107ea565b8360011480156114da57508a6001600160a01b0316836001600160a01b0316145b61154c5760405162461bcd60e51b815260206004820152602a60248201527f455243313135353a20696e73756666696369656e742062616c616e636520666f60448201527f72207472616e736665720000000000000000000000000000000000000000000060648201526084016107ea565b60008581526001602052604090206001600160a01b038b1677ffffffff000000000000000000000000000000000000000060a085901b16177fffffffffffffffff00000000000000000000000000000000000000000000000060c084901b161790555050505050806115bd90615823565b9050611435565b50836001600160a01b0316856001600160a01b0316336001600160a01b03167f4a39dc06d4c0dbc64b70af90fd698a233a518aa5d07e595d983b8c0526c8f7fb868660405161161492919061585b565b60405180910390a461162a338686868686613b9b565b5050505050565b604080516020808201879052818301869052825180830384018152606090920190925280519101206000808061166684610831565b9194509250905060007f6c32148f748aba23997146d7fe89e962e3cc30271290fb96f5f4337756c03b52890161176f576116a08533613425565b6116c65760405163168ab55d60e31b8152600481018690523360248201526044016107ea565b6040517fd6e4fa86000000000000000000000000000000000000000000000000000000008152600481018990527f00000000000000000000000000000000000000000000000000000000000000006001600160a01b03169063d6e4fa8690602401602060405180830381865afa158015611744573d6000803e3d6000fd5b505050506040513d601f19601f820116820180604052508101906117689190615889565b90506117ad565b6117798933613425565b61179f5760405163168ab55d60e31b8152600481018690523360248201526044016107ea565b6117a889610831565b925050505b6117b8868383613da7565b955060408316158015906117da57508263ffffffff1687841763ffffffff1614155b156117fb5760405163a2a7201360e01b8152600481018690526024016107ea565b9582179561180b85858989613df1565b505050505050505050565b60008061182283610831565b90935091505063ffffffff8216158015611844575067ffffffffffffffff8116155b1561191f576000838152600560205260408120805461186290615755565b80601f016020809104026020016040519081016040528092919081815260200182805461188e90615755565b80156118db5780601f106118b0576101008083540402835291602001916118db565b820191906000526020600020905b8154815290600101906020018083116118be57829003601f168201915b50505050509050805160000361191d576040517f3b4d540000000000000000000000000000000000000000000000000000000000815260040160405180910390fd5b505b915091565b6060815183511461199d5760405162461bcd60e51b815260206004820152602960248201527f455243313135353a206163636f756e747320616e6420696473206c656e67746860448201527f206d69736d61746368000000000000000000000000000000000000000000000060648201526084016107ea565b6000835167ffffffffffffffff8111156119b9576119b9614df2565b6040519080825280602002602001820160405280156119e2578160200160208202803683370190505b50905060005b8451811015611a5a57611a2d858281518110611a0657611a066157c5565b6020026020010151858381518110611a2057611a206157c5565b6020026020010151610770565b828281518110611a3f57611a3f6157c5565b6020908102919091010152611a5381615823565b90506119e8565b509392505050565b600061082b82613e4d565b3360009081526003602052604081205460ff16611af25760405162461bcd60e51b815260206004820152602860248201527f436f6e74726f6c6c61626c653a2043616c6c6572206973206e6f74206120636f60448201527f6e74726f6c6c657200000000000000000000000000000000000000000000000060648201526084016107ea565b604080517f93cdeb708b7545dc668eb9280176169d1c33cfd8ed6f04690a0bcc88a93fc4ae602080830191909152818301879052825180830384018152606090920190925280519101206000906040517fc475abff00000000000000000000000000000000000000000000000000000000815260048101879052602481018690529091507f00000000000000000000000000000000000000000000000000000000000000006001600160a01b03169063c475abff906044016020604051808303816000875af1158015611bc9573d6000803e3d6000fd5b505050506040513d601f19601f82011682018060405250810190611bed9190615889565b915060008080611bfc84610831565b925092509250611c0d868287613da7565b9550611c1b84848489613e63565b505050509392505050565b6000546001600160a01b03163314611c805760405162461bcd60e51b815260206004820181905260248201527f4f776e61626c653a2063616c6c6572206973206e6f7420746865206f776e657260448201526064016107ea565b611c8a6000613ed4565b565b604080517f93cdeb708b7545dc668eb9280176169d1c33cfd8ed6f04690a0bcc88a93fc4ae60208083019190915281830186905282518083038401815260609092019092528051910120611ce08133613425565b611d065760405163168ab55d60e31b8152600481018290523360248201526044016107ea565b604080517f93cdeb708b7545dc668eb9280176169d1c33cfd8ed6f04690a0bcc88a93fc4ae60208083019190915281830187905282518083038401815260609092019092528051910120611d5b905b83613f3c565b6040517f23b872dd0000000000000000000000000000000000000000000000000000000081523060048201526001600160a01b038481166024830152604482018690527f000000000000000000000000000000000000000000000000000000000000000016906323b872dd90606401600060405180830381600087803b158015611de457600080fd5b505af1158015611df8573d6000803e3d6000fd5b5050505050505050565b3360009081526003602052604081205460ff16611e875760405162461bcd60e51b815260206004820152602860248201527f436f6e74726f6c6c61626c653a2043616c6c6572206973206e6f74206120636f60448201527f6e74726f6c6c657200000000000000000000000000000000000000000000000060648201526084016107ea565b60008888604051611e999291906158a2565b6040519081900381207ffca247ac000000000000000000000000000000000000000000000000000000008252600482018190523060248301526044820188905291507f00000000000000000000000000000000000000000000000000000000000000006001600160a01b03169063fca247ac906064016020604051808303816000875af1158015611f2e573d6000803e3d6000fd5b505050506040513d601f19601f82011682018060405250810190611f529190615889565b9150611f9989898080601f0160208091040260200160405190810160405280939291908181526020018383808284376000920191909152508b925088915087905089613910565b5050979650505050505050565b6001600160a01b03821633036120245760405162461bcd60e51b815260206004820152602960248201527f455243313135353a2073657474696e6720617070726f76616c2073746174757360448201527f20666f722073656c66000000000000000000000000000000000000000000000060648201526084016107ea565b3360008181526002602090815260408083206001600160a01b0387168085529083529281902080547fffffffffffffffffffffffffffffffffffffffffffffffffffffffffffffff001686151590811790915590519081529192917f17307eab39ab6107e8899845ad3d59bd9653f200f220920489ca2b5937696c31910160405180910390a35050565b6000806120ba84610831565b50841663ffffffff908116908516149250505092915050565b6000546001600160a01b0316331461212d5760405162461bcd60e51b815260206004820181905260248201527f4f776e61626c653a2063616c6c6572206973206e6f7420746865206f776e657260448201526064016107ea565b6006546001600160a01b03161561227f576006546040517fa22cb4650000000000000000000000000000000000000000000000000000000081526001600160a01b039182166004820152600060248201527f00000000000000000000000000000000000000000000000000000000000000009091169063a22cb46590604401600060405180830381600087803b1580156121c657600080fd5b505af11580156121da573d6000803e3d6000fd5b50506006546040517fa22cb4650000000000000000000000000000000000000000000000000000000081526001600160a01b039182166004820152600060248201527f0000000000000000000000000000000000000000000000000000000000000000909116925063a22cb4659150604401600060405180830381600087803b15801561226657600080fd5b505af115801561227a573d6000803e3d6000fd5b505050505b600680547fffffffffffffffffffffffff0000000000000000000000000000000000000000166001600160a01b038316908117909155156123f6576006546040517fa22cb4650000000000000000000000000000000000000000000000000000000081526001600160a01b039182166004820152600160248201527f00000000000000000000000000000000000000000000000000000000000000009091169063a22cb46590604401600060405180830381600087803b15801561234257600080fd5b505af1158015612356573d6000803e3d6000fd5b50506006546040517fa22cb4650000000000000000000000000000000000000000000000000000000081526001600160a01b039182166004820152600160248201527f0000000000000000000000000000000000000000000000000000000000000000909116925063a22cb4659150604401600060405180830381600087803b1580156123e257600080fd5b505af115801561162a573d6000803e3d6000fd5b50565b6000826124068133613425565b61242c5760405163168ab55d60e31b8152600481018290523360248201526044016107ea565b836002600061243a83610831565b5091505063ffffffff82821616156124685760405163a2a7201360e01b8152600481018490526024016107ea565b60408616156124935760405163168ab55d60e31b8152600481018890523360248201526044016107ea565b600080806124a08a610831565b92509250925081891798506124b78a848b84613df1565b509698975050505050505050565b6000866124d28133613425565b6124f85760405163168ab55d60e31b8152600481018290523360248201526044016107ea565b8787876040516125099291906158a2565b604051809103902060006125448383604080516020808201949094528082019290925280518083038201815260609092019052805191012090565b6040517f02571be3000000000000000000000000000000000000000000000000000000008152600481018290529091506000906001600160a01b037f000000000000000000000000000000000000000000000000000000000000000016906302571be390602401602060405180830381865afa1580156125c8573d6000803e3d6000fd5b505050506040513d601f19601f820116820180604052508101906125ec91906157a8565b90506001600160a01b03811661263657600061260785610831565b5091505060208116156126305760405163a2a7201360e01b8152600481018690526024016107ea565b5061266c565b600061264183610831565b50915050604081161561266a5760405163a2a7201360e01b8152600481018690526024016107ea565b505b60008b8b60405161267e9291906158a2565b604051809103902090506126b98d82604080516020808201949094528082019290925280518083038201815260609092019052805191012090565b96506126c68d888a613a67565b6040517f02571be3000000000000000000000000000000000000000000000000000000008152600481018b9052909a503092506001600160a01b037f00000000000000000000000000000000000000000000000000000000000000001691506302571be390602401602060405180830381865afa15801561274b573d6000803e3d6000fd5b505050506040513d601f19601f8201168201806040525081019061276f91906157a8565b6001600160a01b031614612886576040517f06ab5923000000000000000000000000000000000000000000000000000000008152600481018e9052602481018290523060448201526001600160a01b037f000000000000000000000000000000000000000000000000000000000000000016906306ab5923906064016020604051808303816000875af115801561280a573d6000803e3d6000fd5b505050506040513d601f19601f8201168201806040525081019061282e9190615889565b506128818d888e8e8080601f016020809104026020016040519081016040528093929190818152602001838380828437600081840152601f19601f820116905080830192505050505050508d8d8d613aa6565b612892565b612892878b8b8b613b60565b5050505050509695505050505050565b836128ad8133613425565b6128d35760405163168ab55d60e31b8152600481018290523360248201526044016107ea565b84601c60006128e183610831565b5091505063ffffffff828216161561290f5760405163a2a7201360e01b8152600481018490526024016107ea565b6040517fcf408823000000000000000000000000000000000000000000000000000000008152600481018990523060248201526001600160a01b03878116604483015267ffffffffffffffff871660648301527f0000000000000000000000000000000000000000000000000000000000000000169063cf40882390608401600060405180830381600087803b1580156129a857600080fd5b505af11580156129bc573d6000803e3d6000fd5b5050505060006129ce8960001c610831565b5050905061180b81898b60001c6001604051806020016040528060008152506140a7565b60408051602080820186905281830185905282518083038401815260609092019092528051910120612a248133613425565b612a4a5760405163168ab55d60e31b8152600481018290523360248201526044016107ea565b7f6c32148f748aba23997146d7fe89e962e3cc30271290fb96f5f4337756c03b528401612aa3576040517f615a470300000000000000000000000000000000000000000000000000000000815260040160405180910390fd5b60408051602080820187905281830186905282518083038401815260609092019092528051910120612ad490611d55565b50505050565b6000546001600160a01b03163314612b345760405162461bcd60e51b815260206004820181905260248201527f4f776e61626c653a2063616c6c6572206973206e6f7420746865206f776e657260448201526064016107ea565b6001600160a01b03821660008181526003602090815260409182902080547fffffffffffffffffffffffffffffffffffffffffffffffffffffffffffffff001685151590811790915591519182527f4c97694570a07277810af7e5669ffd5f6a2d6b74b6e9a274b8b870fd5114cf8791015b60405180910390a25050565b60008484604051612bc49291906158a2565b60405190819003902090506000612c227f93cdeb708b7545dc668eb9280176169d1c33cfd8ed6f04690a0bcc88a93fc4ae83604080516020808201949094528082019290925280518083038201815260609092019052805191012090565b9050600080612c308361424f565b6006546040517ff9547a9e0000000000000000000000000000000000000000000000000000000081529294509092506001600160a01b03169063f9547a9e90612c87908b908b908b90889088908d906004016158dd565b600060405180830381600087803b158015612ca157600080fd5b505af1158015612cb5573d6000803e3d6000fd5b505050505050505050505050565b600080612d0a600087878080601f01602080910402602001604051908101604052809392919081815260200183838082843760009201919091525092939250506142dd9050565b915091506000612d538288888080601f01602080910402602001604051908101604052809392919081815260200183838082843760009201919091525092939250506143949050565b604080516020808201849052818301879052825180830384018152606090920190925280519101209091507f6c32148f748aba23997146d7fe89e962e3cc30271290fb96f5f4337756c03b528201612dd7576040517f615a470300000000000000000000000000000000000000000000000000000000815260040160405180910390fd5b6040517f02571be3000000000000000000000000000000000000000000000000000000008152600481018290526000907f00000000000000000000000000000000000000000000000000000000000000006001600160a01b0316906302571be390602401602060405180830381865afa158015612e58573d6000803e3d6000fd5b505050506040513d601f19601f82011682018060405250810190612e7c91906157a8565b90506001600160a01b0381163314801590612ebb57506001600160a01b038116600090815260026020908152604080832033845290915290205460ff16155b8015612f6d57506040517fe985e9c50000000000000000000000000000000000000000000000000000000081526001600160a01b0382811660048301523360248301527f0000000000000000000000000000000000000000000000000000000000000000169063e985e9c590604401602060405180830381865afa158015612f47573d6000803e3d6000fd5b505050506040513d601f19601f82011682018060405250810190612f6b9190615933565b155b15612f945760405163168ab55d60e31b8152600481018390523360248201526044016107ea565b6001600160a01b0386161561303f576040517f1896f70a000000000000000000000000000000000000000000000000000000008152600481018390526001600160a01b0387811660248301527f00000000000000000000000000000000000000000000000000000000000000001690631896f70a90604401600060405180830381600087803b15801561302657600080fd5b505af115801561303a573d6000803e3d6000fd5b505050505b6040517f5b0fc9c3000000000000000000000000000000000000000000000000000000008152600481018390523060248201527f00000000000000000000000000000000000000000000000000000000000000006001600160a01b031690635b0fc9c390604401600060405180830381600087803b1580156130c057600080fd5b505af11580156130d4573d6000803e3d6000fd5b5050505061180b828a8a8080601f01602080910402602001604051908101604052809392919081815260200183838082843760009201829052508d93509150819050614453565b6000848460405161312d9291906158a2565b60405180910390209050600061316a8783604080516020808201949094528082019290925280518083038201815260609092019052805191012090565b90506000806131788361424f565b6006546040517f24c1af440000000000000000000000000000000000000000000000000000000081529294509092506001600160a01b0316906324c1af44906131d4908c908c908c908c908c906000908b908b90600401615950565b600060405180830381600087803b1580156131ee57600080fd5b505af1158015613202573d6000803e3d6000fd5b50505050505050505050505050565b6001600160a01b03841661328d5760405162461bcd60e51b815260206004820152602560248201527f455243313135353a207472616e7366657220746f20746865207a65726f20616460448201527f647265737300000000000000000000000000000000000000000000000000000060648201526084016107ea565b6001600160a01b0385163314806132c757506001600160a01b038516600090815260026020908152604080832033845290915290205460ff165b6133395760405162461bcd60e51b815260206004820152602960248201527f455243313135353a2063616c6c6572206973206e6f74206f776e6572206e6f7260448201527f20617070726f766564000000000000000000000000000000000000000000000060648201526084016107ea565b61162a85858585856140a7565b6000546001600160a01b031633146133a05760405162461bcd60e51b815260206004820181905260248201527f4f776e61626c653a2063616c6c6572206973206e6f7420746865206f776e657260448201526064016107ea565b6001600160a01b03811661341c5760405162461bcd60e51b815260206004820152602660248201527f4f776e61626c653a206e6577206f776e657220697320746865207a65726f206160448201527f646472657373000000000000000000000000000000000000000000000000000060648201526084016107ea565b6123f681613ed4565b60008061343184611a62565b9050826001600160a01b0316816001600160a01b0316148061347857506001600160a01b0380821660009081526002602090815260408083209387168352929052205460ff165b949350505050565b60008087876040516134939291906158a2565b6040519081900381207f6352211e0000000000000000000000000000000000000000000000000000000082526004820181905291506000907f00000000000000000000000000000000000000000000000000000000000000006001600160a01b031690636352211e90602401602060405180830381865afa15801561351c573d6000803e3d6000fd5b505050506040513d601f19601f8201168201806040525081019061354091906157a8565b90506001600160a01b038116331480159061357f57506001600160a01b038116600090815260026020908152604080832033845290915290205460ff16155b801561363157506040517fe985e9c50000000000000000000000000000000000000000000000000000000081526001600160a01b0382811660048301523360248301527f0000000000000000000000000000000000000000000000000000000000000000169063e985e9c590604401602060405180830381865afa15801561360b573d6000803e3d6000fd5b505050506040513d601f19601f8201168201806040525081019061362f9190615933565b155b156136a157604080517f93cdeb708b7545dc668eb9280176169d1c33cfd8ed6f04690a0bcc88a93fc4ae6020808301919091528183018590528251808303840181526060830193849052805191012063168ab55d60e31b909252606481019190915233608482015260a4016107ea565b6040517f23b872dd0000000000000000000000000000000000000000000000000000000081526001600160a01b038281166004830152306024830152604482018490527f000000000000000000000000000000000000000000000000000000000000000016906323b872dd90606401600060405180830381600087803b15801561372a57600080fd5b505af115801561373e573d6000803e3d6000fd5b50506040517f28ed4f6c000000000000000000000000000000000000000000000000000000008152600481018590523060248201527f00000000000000000000000000000000000000000000000000000000000000006001600160a01b031692506328ed4f6c9150604401600060405180830381600087803b1580156137c357600080fd5b505af11580156137d7573d6000803e3d6000fd5b5050505061382089898080601f0160208091040260200160405190810160405280939291908181526020018383808284376000920191909152508b92508a915089905088613910565b9998505050505050505050565b60007fffffffff0000000000000000000000000000000000000000000000000000000082167fd9b67a260000000000000000000000000000000000000000000000000000000014806138c057507fffffffff0000000000000000000000000000000000000000000000000000000082167f0e89341c00000000000000000000000000000000000000000000000000000000145b8061082b57507f01ffc9a7000000000000000000000000000000000000000000000000000000007fffffffff0000000000000000000000000000000000000000000000000000000083161461082b565b845160208601206000908161396c7f93cdeb708b7545dc668eb9280176169d1c33cfd8ed6f04690a0bcc88a93fc4ae83604080516020808201949094528082019290925280518083038201815260609092019052805191012090565b90506139798183876144c4565b96506139b091507f93cdeb708b7545dc668eb9280176169d1c33cfd8ed6f04690a0bcc88a93fc4ae9050828a8a60408b178a613aa6565b6001600160a01b03841615613a5b576040517f1896f70a000000000000000000000000000000000000000000000000000000008152600481018290526001600160a01b0385811660248301527f00000000000000000000000000000000000000000000000000000000000000001690631896f70a90604401600060405180830381600087803b158015613a4257600080fd5b505af1158015613a56573d6000803e3d6000fd5b505050505b50929695505050505050565b6000808080613a7586610831565b919550935090506000613a8788610831565b92505050613a96868383613da7565b9550859250505093509350939050565b60008681526005602052604081208054613b48918791613ac590615755565b80601f0160208091040260200160405190810160405280929190818152602001828054613af190615755565b8015613b3e5780601f10613b1357610100808354040283529160200191613b3e565b820191906000526020600020905b815481529060010190602001808311613b2157829003601f168201915b505050505061458c565b9050613b578682868686614453565b50505050505050565b6000613b6b85610831565b50509050613b8f81858760001c6001604051806020016040528060008152506140a7565b61162a85858585613df1565b6001600160a01b0384163b15613d9f576040517fbc197c810000000000000000000000000000000000000000000000000000000081526001600160a01b0385169063bc197c8190613bf890899089908890889088906004016159b3565b6020604051808303816000875af1925050508015613c33575060408051601f3d908101601f19168201909252613c3091810190615a11565b60015b613ce857613c3f615a2e565b806308c379a003613c785750613c53615a4a565b80613c5e5750613c7a565b8060405162461bcd60e51b81526004016107ea9190614c8d565b505b60405162461bcd60e51b815260206004820152603460248201527f455243313135353a207472616e7366657220746f206e6f6e204552433131353560448201527f526563656976657220696d706c656d656e74657200000000000000000000000060648201526084016107ea565b7fffffffff0000000000000000000000000000000000000000000000000000000081167fbc197c810000000000000000000000000000000000000000000000000000000014613b575760405162461bcd60e51b815260206004820152602860248201527f455243313135353a204552433131353552656365697665722072656a6563746560448201527f6420746f6b656e7300000000000000000000000000000000000000000000000060648201526084016107ea565b505050505050565b60008167ffffffffffffffff168467ffffffffffffffff161115613dc9578193505b8267ffffffffffffffff168467ffffffffffffffff161015613de9578293505b509192915050565b613dfd84848484613e63565b6040805163ffffffff8416815267ffffffffffffffff8316602082015285917f936318e296f824e203b086d97bb155a0200cec4847efea1fb4b9b7f924157355910160405180910390a250505050565b600080613e5983610831565b5090949350505050565b613e6d8483614635565b60008481526001602052604090206001600160a01b03841677ffffffff000000000000000000000000000000000000000060a085901b16177fffffffffffffffff00000000000000000000000000000000000000000000000060c084901b16179055612ad4565b600080546001600160a01b038381167fffffffffffffffffffffffff0000000000000000000000000000000000000000831681178455604051919092169283917f8be0079c531659141344cd1fd0a4f28419497f9722a3daafe3b4186f6b6457e09190a35050565b6001600160a01b0381161580613f5a57506001600160a01b03811630145b15613f9c576040517f5949361a0000000000000000000000000000000000000000000000000000000081526001600160a01b03821660048201526024016107ea565b613fa78260016120ae565b15613fc85760405163a2a7201360e01b8152600481018390526024016107ea565b613fd182614672565b6040517f5b0fc9c3000000000000000000000000000000000000000000000000000000008152600481018390526001600160a01b0382811660248301527f00000000000000000000000000000000000000000000000000000000000000001690635b0fc9c390604401600060405180830381600087803b15801561405457600080fd5b505af1158015614068573d6000803e3d6000fd5b50506040516001600160a01b03841681528492507fee2ba1195c65bcf218a83d874335c6bf9d9067b4c672f3c3bf16cf40de7586c49150602001612ba6565b60008060006140b586610831565b925092509250866001600160a01b0316836001600160a01b0316036140dc5750505061162a565b60048216156141015760405163a2a7201360e01b8152600481018790526024016107ea565b8460011480156141225750876001600160a01b0316836001600160a01b0316145b6141945760405162461bcd60e51b815260206004820152602a60248201527f455243313135353a20696e73756666696369656e742062616c616e636520666f60448201527f72207472616e736665720000000000000000000000000000000000000000000060648201526084016107ea565b60008681526001602052604090206001600160a01b03881677ffffffff000000000000000000000000000000000000000060a085901b16177fffffffffffffffff00000000000000000000000000000000000000000000000060c084901b1617905560408051878152602081018790526001600160a01b03808a1692908b169133917fc3d58168c5ae7397731d063d5bbf3d657854427343f4c083240f7aacaa2d0f62910160405180910390a4611df83389898989896146db565b60065460009081906001600160a01b0316614296576040517f24c1d6d400000000000000000000000000000000000000000000000000000000815260040160405180910390fd5b6142a08333613425565b6142c65760405163168ab55d60e31b8152600481018490523360248201526044016107ea565b6142cf83611816565b909250905061191f83614672565b600080835183106143305760405162461bcd60e51b815260206004820152601e60248201527f726561644c6162656c3a20496e646578206f7574206f6620626f756e6473000060448201526064016107ea565b6000848481518110614344576143446157c5565b016020015160f81c905080156143705761436985614363866001615af2565b83614836565b9250614375565b600092505b61437f8185615af2565b61438a906001615af2565b9150509250929050565b60008060006143a385856142dd565b90925090508161441557600185516143bb9190615b0a565b84146144095760405162461bcd60e51b815260206004820152601d60248201527f6e616d65686173683a204a756e6b20617420656e64206f66206e616d6500000060448201526064016107ea565b506000915061082b9050565b61441f8582614394565b6040805160208101929092528101839052606001604051602081830303815290604052805190602001209250505092915050565b6000858152600560209081526040909120855161447292870190614af0565b5061447f8584848461485a565b847f8ce7013e8abebc55c3890a68f5a27c67c3f7efa64e584de5fb22363c606fd340858585856040516144b59493929190615b21565b60405180910390a25050505050565b60008080806144d287610831565b6040517fd6e4fa86000000000000000000000000000000000000000000000000000000008152600481018a905292965090945091506000907f00000000000000000000000000000000000000000000000000000000000000006001600160a01b03169063d6e4fa8690602401602060405180830381865afa15801561455b573d6000803e3d6000fd5b505050506040513d601f19601f8201168201806040525081019061457f9190615889565b9050613a96868383613da7565b60606001835110156145ca576040517f280dacb600000000000000000000000000000000000000000000000000000000815260040160405180910390fd5b60ff8351111561460857826040517fe3ba295f0000000000000000000000000000000000000000000000000000000081526004016107ea9190614c8d565b8251838360405160200161461e93929190615b69565b604051602081830303815290604052905092915050565b63ffffffbf81161580159061464d5750604181811614155b1561466e5760405163a2a7201360e01b8152600481018390526024016107ea565b5050565b600061467d82611a62565b600083815260016020526040812055905060408051838152600160208201526000916001600160a01b0384169133917fc3d58168c5ae7397731d063d5bbf3d657854427343f4c083240f7aacaa2d0f62910160405180910390a45050565b6001600160a01b0384163b15613d9f576040517ff23a6e610000000000000000000000000000000000000000000000000000000081526001600160a01b0385169063f23a6e61906147389089908990889088908890600401615bca565b6020604051808303816000875af1925050508015614773575060408051601f3d908101601f1916820190925261477091810190615a11565b60015b61477f57613c3f615a2e565b7fffffffff0000000000000000000000000000000000000000000000000000000081167ff23a6e610000000000000000000000000000000000000000000000000000000014613b575760405162461bcd60e51b815260206004820152602860248201527f455243313135353a204552433131353552656365697665722072656a6563746560448201527f6420746f6b656e7300000000000000000000000000000000000000000000000060648201526084016107ea565b82516000906148458385615af2565b111561485057600080fd5b5091016020012090565b600061486585611a62565b90506148718584614635565b6001600160a01b038116156148c05761488985614672565b6040516000815285907fee2ba1195c65bcf218a83d874335c6bf9d9067b4c672f3c3bf16cf40de7586c49060200160405180910390a25b61162a858585858360006148d382611a62565b90506001600160a01b0381161561492c5760405162461bcd60e51b815260206004820152601f60248201527f455243313135353a206d696e74206f66206578697374696e6720746f6b656e0060448201526064016107ea565b6001600160a01b0385166149a85760405162461bcd60e51b815260206004820152602160248201527f455243313135353a206d696e7420746f20746865207a65726f2061646472657360448201527f730000000000000000000000000000000000000000000000000000000000000060648201526084016107ea565b306001600160a01b03861603614a265760405162461bcd60e51b815260206004820152603460248201527f455243313135353a206e65774f776e65722063616e6e6f74206265207468652060448201527f4e616d655772617070657220636f6e747261637400000000000000000000000060648201526084016107ea565b60008281526001602052604090206001600160a01b03861677ffffffff000000000000000000000000000000000000000060a087901b16177fffffffffffffffff00000000000000000000000000000000000000000000000060c086901b1617905560408051838152600160208201526001600160a01b0387169160009133917fc3d58168c5ae7397731d063d5bbf3d657854427343f4c083240f7aacaa2d0f62910160405180910390a4613d9f33600087856001604051806020016040528060008152506146db565b828054614afc90615755565b90600052602060002090601f016020900481019282614b1e5760008555614b64565b82601f10614b3757805160ff1916838001178555614b64565b82800160010185558215614b64579182015b82811115614b64578251825591602001919060010190614b49565b50614b70929150614b74565b5090565b5b80821115614b705760008155600101614b75565b6001600160a01b03811681146123f657600080fd5b60008060408385031215614bb157600080fd5b8235614bbc81614b89565b946020939093013593505050565b600060208284031215614bdc57600080fd5b5035919050565b7fffffffff00000000000000000000000000000000000000000000000000000000811681146123f657600080fd5b600060208284031215614c2357600080fd5b8135614c2e81614be3565b9392505050565b60005b83811015614c50578181015183820152602001614c38565b83811115612ad45750506000910152565b60008151808452614c79816020860160208601614c35565b601f01601f19169290920160200192915050565b602081526000614c2e6020830184614c61565b803567ffffffffffffffff81168114614cb857600080fd5b919050565b60008060408385031215614cd057600080fd5b82359150614ce060208401614ca0565b90509250929050565b60008083601f840112614cfb57600080fd5b50813567ffffffffffffffff811115614d1357600080fd5b602083019150836020828501011115614d2b57600080fd5b9250929050565b600080600080600060808688031215614d4a57600080fd5b8535614d5581614b89565b94506020860135614d6581614b89565b935060408601359250606086013567ffffffffffffffff811115614d8857600080fd5b614d9488828901614ce9565b969995985093965092949392505050565b600060208284031215614db757600080fd5b8135614c2e81614b89565b60008060408385031215614dd557600080fd5b823591506020830135614de781614b89565b809150509250929050565b7f4e487b7100000000000000000000000000000000000000000000000000000000600052604160045260246000fd5b601f19601f830116810181811067ffffffffffffffff82111715614e4757614e47614df2565b6040525050565b600067ffffffffffffffff821115614e6857614e68614df2565b50601f01601f191660200190565b600082601f830112614e8757600080fd5b8135614e9281614e4e565b604051614e9f8282614e21565b828152856020848701011115614eb457600080fd5b82602086016020830137600092810160200192909252509392505050565b803563ffffffff81168114614cb857600080fd5b600080600080600080600060e0888a031215614f0157600080fd5b87359650602088013567ffffffffffffffff811115614f1f57600080fd5b614f2b8a828b01614e76565b9650506040880135614f3c81614b89565b94506060880135614f4c81614b89565b9350614f5a60808901614ca0565b9250614f6860a08901614ed2565b9150614f7660c08901614ca0565b905092959891949750929550565b600067ffffffffffffffff821115614f9e57614f9e614df2565b5060051b60200190565b600082601f830112614fb957600080fd5b81356020614fc682614f84565b604051614fd38282614e21565b83815260059390931b8501820192828101915086841115614ff357600080fd5b8286015b8481101561500e5780358352918301918301614ff7565b509695505050505050565b600080600080600060a0868803121561503157600080fd5b853561503c81614b89565b9450602086013561504c81614b89565b9350604086013567ffffffffffffffff8082111561506957600080fd5b61507589838a01614fa8565b9450606088013591508082111561508b57600080fd5b61509789838a01614fa8565b935060808801359150808211156150ad57600080fd5b506150ba88828901614e76565b9150509295509295909350565b600080600080608085870312156150dd57600080fd5b84359350602085013592506150f460408601614ed2565b915061510260608601614ca0565b905092959194509250565b6000806040838503121561512057600080fd5b823567ffffffffffffffff8082111561513857600080fd5b818501915085601f83011261514c57600080fd5b8135602061515982614f84565b6040516151668282614e21565b83815260059390931b850182019282810191508984111561518657600080fd5b948201945b838610156151ad57853561519e81614b89565b8252948201949082019061518b565b965050860135925050808211156151c357600080fd5b5061438a85828601614fa8565b600081518084526020808501945080840160005b83811015615200578151875295820195908201906001016151e4565b509495945050505050565b602081526000614c2e60208301846151d0565b60008060006060848603121561523357600080fd5b833592506020840135915061524a60408501614ca0565b90509250925092565b60008060006060848603121561526857600080fd5b83359250602084013561527a81614b89565b9150604084013561528a81614b89565b809150509250925092565b600080600080600080600060c0888a0312156152b057600080fd5b873567ffffffffffffffff8111156152c757600080fd5b6152d38a828b01614ce9565b90985096505060208801356152e781614b89565b94506040880135935060608801356152fe81614b89565b925061530c60808901614ed2565b9150614f7660a08901614ca0565b80151581146123f657600080fd5b6000806040838503121561533b57600080fd5b823561534681614b89565b91506020830135614de78161531a565b6000806040838503121561536957600080fd5b82359150614ce060208401614ed2565b60008060008060008060a0878903121561539257600080fd5b86359550602087013567ffffffffffffffff8111156153b057600080fd5b6153bc89828a01614ce9565b90965094505060408701356153d081614b89565b92506153de60608801614ed2565b91506153ec60808801614ca0565b90509295509295509295565b6000806000806080858703121561540e57600080fd5b84359350602085013561542081614b89565b925060408501356150f481614b89565b60008060006060848603121561544557600080fd5b8335925060208401359150604084013561528a81614b89565b6000806000806060858703121561547457600080fd5b843567ffffffffffffffff81111561548b57600080fd5b61549787828801614ce9565b90955093505060208501356154ab81614b89565b915060408501356154bb81614b89565b939692955090935050565b600080604083850312156154d957600080fd5b82356154e481614b89565b91506020830135614de781614b89565b60008060008060006080868803121561550c57600080fd5b85359450602086013567ffffffffffffffff81111561552a57600080fd5b61553688828901614ce9565b909550935050604086013561554a81614b89565b9150606086013561555a81614b89565b809150509295509295909350565b600080600080600060a0868803121561558057600080fd5b853561558b81614b89565b9450602086013561559b81614b89565b93506040860135925060608601359150608086013567ffffffffffffffff8111156155c557600080fd5b6150ba88828901614e76565b60008060008060008060a087890312156155ea57600080fd5b863567ffffffffffffffff81111561560157600080fd5b61560d89828a01614ce9565b909750955050602087013561562181614b89565b935061562f60408801614ed2565b925061563d60608801614ca0565b9150608087013561564d81614b89565b809150509295509295509295565b60006020828403121561566d57600080fd5b815167ffffffffffffffff81111561568457600080fd5b8201601f8101841361569557600080fd5b80516156a081614e4e565b6040516156ad8282614e21565b8281528660208486010111156156c257600080fd5b6156d3836020830160208701614c35565b9695505050505050565b600080600080600060a086880312156156f557600080fd5b853567ffffffffffffffff81111561570c57600080fd5b61571888828901614e76565b955050602086013561572981614b89565b935061573760408701614ed2565b925061574560608701614ca0565b9150608086013561555a81614b89565b600181811c9082168061576957607f821691505b6020821081036157a2577f4e487b7100000000000000000000000000000000000000000000000000000000600052602260045260246000fd5b50919050565b6000602082840312156157ba57600080fd5b8151614c2e81614b89565b7f4e487b7100000000000000000000000000000000000000000000000000000000600052603260045260246000fd5b7f4e487b7100000000000000000000000000000000000000000000000000000000600052601160045260246000fd5b60007fffffffffffffffffffffffffffffffffffffffffffffffffffffffffffffffff8203615854576158546157f4565b5060010190565b60408152600061586e60408301856151d0565b828103602084015261588081856151d0565b95945050505050565b60006020828403121561589b57600080fd5b5051919050565b8183823760009101908152919050565b818352818160208501375060006020828401015260006020601f19601f840116840101905092915050565b60a0815260006158f160a08301888a6158b2565b90506001600160a01b03808716602084015263ffffffff8616604084015267ffffffffffffffff85166060840152808416608084015250979650505050505050565b60006020828403121561594557600080fd5b8151614c2e8161531a565b88815260e06020820152600061596a60e08301898b6158b2565b6001600160a01b03978816604084015295909616606082015267ffffffffffffffff938416608082015263ffffffff9290921660a083015290911660c090910152949350505050565b60006001600160a01b03808816835280871660208401525060a060408301526159df60a08301866151d0565b82810360608401526159f181866151d0565b90508281036080840152615a058185614c61565b98975050505050505050565b600060208284031215615a2357600080fd5b8151614c2e81614be3565b600060033d1115615a475760046000803e5060005160e01c5b90565b600060443d1015615a585790565b6040517ffffffffffffffffffffffffffffffffffffffffffffffffffffffffffffffffc803d016004833e81513d67ffffffffffffffff8160248401118184111715615aa657505050505090565b8285019150815181811115615abe5750505050505090565b843d8701016020828501011115615ad85750505050505090565b615ae760208286010187614e21565b509095945050505050565b60008219821115615b0557615b056157f4565b500190565b600082821015615b1c57615b1c6157f4565b500390565b608081526000615b346080830187614c61565b6001600160a01b039590951660208301525063ffffffff92909216604083015267ffffffffffffffff16606090910152919050565b7fff000000000000000000000000000000000000000000000000000000000000008460f81b16815260008351615ba6816001850160208801614c35565b835190830190615bbd816001840160208801614c35565b0160010195945050505050565b60006001600160a01b03808816835280871660208401525084604083015283606083015260a06080830152615c0260a0830184614c61565b97965050505050505056fea2646970667358221220aefa31a1c3a66e200aa9f5cdf69f6668ae7ec325291539d070f5adf11eb2b88c64736f6c634300080d0033",
  "devdoc": {
    "kind": "dev",
    "methods": {
      "allFusesBurned(bytes32,uint32)": {
        "params": {
          "fuseMask": "the fuses you want to check",
          "node": "namehash of the name"
        },
        "returns": {
          "_0": "Boolean of whether or not all the selected fuses are burned"
        }
      },
      "balanceOf(address,uint256)": {
        "details": "See {IERC1155-balanceOf}. Requirements: - `account` cannot be the zero address."
      },
      "balanceOfBatch(address[],uint256[])": {
        "details": "See {IERC1155-balanceOfBatch}. Requirements: - `accounts` and `ids` must have the same length."
      },
      "getData(uint256)": {
        "details": "Returns the Name's owner address and fuses"
      },
      "getFuses(bytes32)": {
        "details": "Fuses are represented by a uint32 where each permission is represented by 1 bit      The interface has predefined fuses for all registry permissions, but additional      fuses can be added for other use cases      Also returns expiry, which is when the fuses are set to expire.",
        "params": {
          "node": "namehash of the name to check"
        },
        "returns": {
          "expiry": "Unix time of when the name expires and fuses are to expire",
          "fuses": "A number that represents the permissions a name has. Returns 0 when expiry < block.timestamp"
        }
      },
      "isApprovedForAll(address,address)": {
        "details": "See {IERC1155-isApprovedForAll}."
      },
      "isTokenOwnerOrApproved(bytes32,address)": {
        "params": {
          "addr": "which address to check permissions for",
          "node": "namehash of the name to check"
        },
        "returns": {
          "_0": "whether or not is owner or approved"
        }
      },
      "owner()": {
        "details": "Returns the address of the current owner."
      },
      "registerAndWrapETH2LD(string,address,uint256,address,uint32,uint64)": {
        "details": "Registers a new .eth second-level domain and wraps it.      Only callable by authorised controllers.",
        "params": {
          "duration": "The duration, in seconds, to register the name for.",
          "expiry": "when the fuses will expire",
          "fuses": "initial fuses to set",
          "label": "The label to register (Eg, 'foo' for 'foo.eth').",
          "resolver": "The resolver address to set on the ENS registry (optional).",
          "wrappedOwner": "The owner of the wrapped name."
        },
        "returns": {
          "registrarExpiry": "The expiry date of the new name on the .eth registrar, in seconds since the Unix epoch."
        }
      },
      "renew(uint256,uint256,uint64)": {
        "details": "Renews a .eth second-level domain.      Only callable by authorised controllers.",
        "params": {
          "duration": "The number of seconds to renew the name for.",
          "tokenId": "The hash of the label to register (eg, `keccak256('foo')`, for 'foo.eth')."
        },
        "returns": {
          "expires": "The expiry date of the name on the .eth registrar, in seconds since the Unix epoch."
        }
      },
      "renounceOwnership()": {
        "details": "Leaves the contract without owner. It will not be possible to call `onlyOwner` functions anymore. Can only be called by the current owner. NOTE: Renouncing ownership will leave the contract without an owner, thereby removing any functionality that is only available to the owner."
      },
      "safeBatchTransferFrom(address,address,uint256[],uint256[],bytes)": {
        "details": "See {IERC1155-safeBatchTransferFrom}."
      },
      "safeTransferFrom(address,address,uint256,uint256,bytes)": {
        "details": "See {IERC1155-safeTransferFrom}."
      },
      "setApprovalForAll(address,bool)": {
        "details": "See {IERC1155-setApprovalForAll}."
      },
      "setFuses(bytes32,uint32)": {
        "params": {
          "fuses": "fuses to burn (cannot burn PARENT_CANOT_CONTROL)",
          "node": "namehash of the name"
        }
      },
      "setRecord(bytes32,address,address,uint64)": {
        "params": {
          "node": "namehash of the name to set a record for",
          "owner": "newOwner in the registry",
          "resolver": "the resolver contract",
          "ttl": "ttl in the registry"
        }
      },
      "setResolver(bytes32,address)": {
        "params": {
          "node": "namehash of the name",
          "resolver": "the resolver contract"
        }
      },
      "setSubnodeOwner(bytes32,string,address,uint32,uint64)": {
        "params": {
          "expiry": "when the fuses will expire",
          "fuses": "initial fuses for the wrapped subdomain",
          "label": "label of the subdomain as a string",
          "newOwner": "newOwner in the registry",
          "parentNode": "parent namehash of the subdomain"
        }
      },
      "setSubnodeRecord(bytes32,string,address,address,uint64,uint32,uint64)": {
        "params": {
          "expiry": "expiry date for the domain",
          "fuses": "initial fuses for the wrapped subdomain",
          "label": "label of the subdomain as a string",
          "newOwner": "newOwner in the registry",
          "parentNode": "parent namehash of the subdomain",
          "resolver": "resolver contract in the registry",
          "ttl": "ttl in the regsitry"
        }
      },
      "setTTL(bytes32,uint64)": {
        "params": {
          "node": "namehash of the name",
          "ttl": "TTL in the registry"
        }
      },
      "setUpgradeContract(address)": {
        "details": "The default value of upgradeContract is the 0 address. Use the 0 address at any time to make the contract not upgradable.",
        "params": {
          "_upgradeAddress": "address of an upgraded contract"
        }
      },
      "transferOwnership(address)": {
        "details": "Transfers ownership of the contract to a new account (`newOwner`). Can only be called by the current owner."
      },
      "unwrap(bytes32,bytes32,address)": {
        "details": "Can be called by the owner in the wrapper or an authorised caller in the wrapper",
        "params": {
          "labelhash": "labelhash of the name, e.g. vitalik.xyz would be keccak256('vitalik')",
          "newController": "sets the owner in the registry to this address",
          "parentNode": "parent namehash of the name e.g. vitalik.xyz would be namehash('xyz')"
        }
      },
      "unwrapETH2LD(bytes32,address,address)": {
        "details": "Can be called by the owner in the wrapper or an authorised caller in the wrapper",
        "params": {
          "labelhash": "labelhash of the .eth domain",
          "newController": "sets the owner in the registry to this address",
          "newRegistrant": "sets the owner in the .eth registrar to this address"
        }
      },
      "upgrade(bytes32,string,address,address)": {
        "details": "Can be called by the owner or an authorised caller Requires upgraded Namewrapper to permit old Namewrapper to call `setSubnodeRecord` for all names",
        "params": {
          "label": "Label as a string of the name to upgrade",
          "parentNode": "namehash of the parent name",
          "resolver": "resolver contract for this name",
          "wrappedOwner": "Owner of the name in this contract"
        }
      },
      "upgradeETH2LD(string,address,address)": {
        "details": "Can be called by the owner of the name in this contract",
        "params": {
          "label": "Label as a string of the .eth name to upgrade",
          "wrappedOwner": "The owner of the wrapped name"
        }
      },
      "uri(uint256)": {
        "returns": {
          "_0": "String uri of the metadata service"
        }
      },
      "wrap(bytes,address,address)": {
        "details": "Can be called by the owner in the registry or an authorised caller in the registry",
        "params": {
          "name": "The name to wrap, in DNS format",
          "resolver": "resolver contract address",
          "wrappedOwner": "Owner of the name in this contract"
        }
      },
      "wrapETH2LD(string,address,uint32,uint64,address)": {
        "details": "Can be called by the owner of the name on the .eth registrar or an authorised caller on the registrar",
        "params": {
          "expiry": "when the fuses will expire",
          "fuses": "initial fuses to set",
          "label": "label as a string of the .eth domain to wrap",
          "resolver": "resolver contract address",
          "wrappedOwner": "Owner of the name in this contract"
        }
      }
    },
    "version": 1
  },
  "userdoc": {
    "kind": "user",
    "methods": {
      "allFusesBurned(bytes32,uint32)": {
        "notice": "Checks all Fuses in the mask are burned for the node"
      },
      "getFuses(bytes32)": {
        "notice": "Gets fuse permissions for a specific name"
      },
      "isTokenOwnerOrApproved(bytes32,address)": {
        "notice": "Checks if owner or approved by owner"
      },
      "setFuses(bytes32,uint32)": {
        "notice": "Sets fuses of a name"
      },
      "setMetadataService(address)": {
        "notice": "Set the metadata service. Only the owner can do this"
      },
      "setRecord(bytes32,address,address,uint64)": {
        "notice": "Sets records for the name in the ENS Registry"
      },
      "setResolver(bytes32,address)": {
        "notice": "Sets resolver contract in the registry"
      },
      "setSubnodeOwner(bytes32,string,address,uint32,uint64)": {
        "notice": "Sets the subdomain owner in the registry and then wraps the subdomain"
      },
      "setSubnodeRecord(bytes32,string,address,address,uint64,uint32,uint64)": {
        "notice": "Sets the subdomain owner in the registry with records and then wraps the subdomain"
      },
      "setTTL(bytes32,uint64)": {
        "notice": "Sets TTL in the registry"
      },
      "setUpgradeContract(address)": {
        "notice": "Set the address of the upgradeContract of the contract. only admin can do this"
      },
      "unwrap(bytes32,bytes32,address)": {
        "notice": "Unwraps a non .eth domain, of any kind. Could be a DNSSEC name vitalik.xyz or a subdomain"
      },
      "unwrapETH2LD(bytes32,address,address)": {
        "notice": "Unwraps a .eth domain. e.g. vitalik.eth"
      },
      "upgrade(bytes32,string,address,address)": {
        "notice": "Upgrades a non .eth domain of any kind. Could be a DNSSEC name vitalik.xyz or a subdomain"
      },
      "upgradeETH2LD(string,address,address)": {
        "notice": "Upgrades a .eth wrapped domain by calling the wrapETH2LD function of the upgradeContract     and burning the token of this contract"
      },
      "uri(uint256)": {
        "notice": "Get the metadata uri"
      },
      "wrap(bytes,address,address)": {
        "notice": "Wraps a non .eth domain, of any kind. Could be a DNSSEC name vitalik.xyz or a subdomain"
      },
      "wrapETH2LD(string,address,uint32,uint64,address)": {
        "notice": "Wraps a .eth domain, creating a new token and sending the original ERC721 token to this contract"
      }
    },
    "version": 1
  },
  "storageLayout": {
    "storage": [
      {
        "astId": 545,
        "contract": "contracts/wrapper/NameWrapper.sol:NameWrapper",
        "label": "_owner",
        "offset": 0,
        "slot": "0",
        "type": "t_address"
      },
      {
        "astId": 17159,
        "contract": "contracts/wrapper/NameWrapper.sol:NameWrapper",
        "label": "_tokens",
        "offset": 0,
        "slot": "1",
        "type": "t_mapping(t_uint256,t_uint256)"
      },
      {
        "astId": 17165,
        "contract": "contracts/wrapper/NameWrapper.sol:NameWrapper",
        "label": "_operatorApprovals",
        "offset": 0,
        "slot": "2",
        "type": "t_mapping(t_address,t_mapping(t_address,t_bool))"
      },
      {
        "astId": 17095,
        "contract": "contracts/wrapper/NameWrapper.sol:NameWrapper",
        "label": "controllers",
        "offset": 0,
        "slot": "3",
        "type": "t_mapping(t_address,t_bool)"
      },
      {
        "astId": 18374,
        "contract": "contracts/wrapper/NameWrapper.sol:NameWrapper",
        "label": "metadataService",
        "offset": 0,
        "slot": "4",
        "type": "t_contract(IMetadataService)17999"
      },
      {
        "astId": 18379,
        "contract": "contracts/wrapper/NameWrapper.sol:NameWrapper",
        "label": "names",
        "offset": 0,
        "slot": "5",
        "type": "t_mapping(t_bytes32,t_bytes_storage)"
      },
      {
        "astId": 18388,
        "contract": "contracts/wrapper/NameWrapper.sol:NameWrapper",
        "label": "upgradeContract",
        "offset": 0,
        "slot": "6",
        "type": "t_contract(INameWrapperUpgrade)18297"
      }
    ],
    "types": {
      "t_address": {
        "encoding": "inplace",
        "label": "address",
        "numberOfBytes": "20"
      },
      "t_bool": {
        "encoding": "inplace",
        "label": "bool",
        "numberOfBytes": "1"
      },
      "t_bytes32": {
        "encoding": "inplace",
        "label": "bytes32",
        "numberOfBytes": "32"
      },
      "t_bytes_storage": {
        "encoding": "bytes",
        "label": "bytes",
        "numberOfBytes": "32"
      },
      "t_contract(IMetadataService)17999": {
        "encoding": "inplace",
        "label": "contract IMetadataService",
        "numberOfBytes": "20"
      },
      "t_contract(INameWrapperUpgrade)18297": {
        "encoding": "inplace",
        "label": "contract INameWrapperUpgrade",
        "numberOfBytes": "20"
      },
      "t_mapping(t_address,t_bool)": {
        "encoding": "mapping",
        "key": "t_address",
        "label": "mapping(address => bool)",
        "numberOfBytes": "32",
        "value": "t_bool"
      },
      "t_mapping(t_address,t_mapping(t_address,t_bool))": {
        "encoding": "mapping",
        "key": "t_address",
        "label": "mapping(address => mapping(address => bool))",
        "numberOfBytes": "32",
        "value": "t_mapping(t_address,t_bool)"
      },
      "t_mapping(t_bytes32,t_bytes_storage)": {
        "encoding": "mapping",
        "key": "t_bytes32",
        "label": "mapping(bytes32 => bytes)",
        "numberOfBytes": "32",
        "value": "t_bytes_storage"
      },
      "t_mapping(t_uint256,t_uint256)": {
        "encoding": "mapping",
        "key": "t_uint256",
        "label": "mapping(uint256 => uint256)",
        "numberOfBytes": "32",
        "value": "t_uint256"
      },
      "t_uint256": {
        "encoding": "inplace",
        "label": "uint256",
        "numberOfBytes": "32"
      }
    }
  }
}