{
  "address": "0xbf3a173Bbc5B81b057E7FedAd5d51a7b7C5e42DE",
  "abi": [
    {
      "inputs": [
        {
          "internalType": "contract ENS",
          "name": "_ens",
          "type": "address"
        },
        {
          "internalType": "contract INameWrapper",
          "name": "wrapperAddress",
          "type": "address"
        },
        {
          "internalType": "address",
          "name": "_trustedETHController",
          "type": "address"
        },
        {
          "internalType": "address",
          "name": "_trustedReverseRegistrar",
          "type": "address"
        }
      ],
      "stateMutability": "nonpayable",
      "type": "constructor"
    },
    {
      "anonymous": false,
      "inputs": [
        {
          "indexed": true,
          "internalType": "bytes32",
          "name": "node",
          "type": "bytes32"
        },
        {
          "indexed": true,
          "internalType": "uint256",
          "name": "contentType",
          "type": "uint256"
        }
      ],
      "name": "ABIChanged",
      "type": "event"
    },
    {
      "anonymous": false,
      "inputs": [
        {
          "indexed": true,
          "internalType": "bytes32",
          "name": "node",
          "type": "bytes32"
        },
        {
          "indexed": false,
          "internalType": "address",
          "name": "a",
          "type": "address"
        }
      ],
      "name": "AddrChanged",
      "type": "event"
    },
    {
      "anonymous": false,
      "inputs": [
        {
          "indexed": true,
          "internalType": "bytes32",
          "name": "node",
          "type": "bytes32"
        },
        {
          "indexed": false,
          "internalType": "uint256",
          "name": "coinType",
          "type": "uint256"
        },
        {
          "indexed": false,
          "internalType": "bytes",
          "name": "newAddress",
          "type": "bytes"
        }
      ],
      "name": "AddressChanged",
      "type": "event"
    },
    {
      "anonymous": false,
      "inputs": [
        {
          "indexed": true,
          "internalType": "address",
          "name": "owner",
          "type": "address"
        },
        {
          "indexed": true,
          "internalType": "address",
          "name": "operator",
          "type": "address"
        },
        {
          "indexed": false,
          "internalType": "bool",
          "name": "approved",
          "type": "bool"
        }
      ],
      "name": "ApprovalForAll",
      "type": "event"
    },
    {
      "anonymous": false,
      "inputs": [
        {
          "indexed": true,
          "internalType": "bytes32",
          "name": "node",
          "type": "bytes32"
        },
        {
          "indexed": false,
          "internalType": "bytes",
          "name": "hash",
          "type": "bytes"
        }
      ],
      "name": "ContenthashChanged",
      "type": "event"
    },
    {
      "anonymous": false,
      "inputs": [
        {
          "indexed": true,
          "internalType": "bytes32",
          "name": "node",
          "type": "bytes32"
        },
        {
          "indexed": false,
          "internalType": "bytes",
          "name": "name",
          "type": "bytes"
        },
        {
          "indexed": false,
          "internalType": "uint16",
          "name": "resource",
          "type": "uint16"
        },
        {
          "indexed": false,
          "internalType": "bytes",
          "name": "record",
          "type": "bytes"
        }
      ],
      "name": "DNSRecordChanged",
      "type": "event"
    },
    {
      "anonymous": false,
      "inputs": [
        {
          "indexed": true,
          "internalType": "bytes32",
          "name": "node",
          "type": "bytes32"
        },
        {
          "indexed": false,
          "internalType": "bytes",
          "name": "name",
          "type": "bytes"
        },
        {
          "indexed": false,
          "internalType": "uint16",
          "name": "resource",
          "type": "uint16"
        }
      ],
      "name": "DNSRecordDeleted",
      "type": "event"
    },
    {
      "anonymous": false,
      "inputs": [
        {
          "indexed": true,
          "internalType": "bytes32",
          "name": "node",
          "type": "bytes32"
        }
      ],
      "name": "DNSZoneCleared",
      "type": "event"
    },
    {
      "anonymous": false,
      "inputs": [
        {
          "indexed": true,
          "internalType": "bytes32",
          "name": "node",
          "type": "bytes32"
        },
        {
          "indexed": false,
          "internalType": "bytes",
          "name": "lastzonehash",
          "type": "bytes"
        },
        {
          "indexed": false,
          "internalType": "bytes",
          "name": "zonehash",
          "type": "bytes"
        }
      ],
      "name": "DNSZonehashChanged",
      "type": "event"
    },
    {
      "anonymous": false,
      "inputs": [
        {
          "indexed": true,
          "internalType": "bytes32",
          "name": "node",
          "type": "bytes32"
        },
        {
          "indexed": true,
          "internalType": "bytes4",
          "name": "interfaceID",
          "type": "bytes4"
        },
        {
          "indexed": false,
          "internalType": "address",
          "name": "implementer",
          "type": "address"
        }
      ],
      "name": "InterfaceChanged",
      "type": "event"
    },
    {
      "anonymous": false,
      "inputs": [
        {
          "indexed": true,
          "internalType": "bytes32",
          "name": "node",
          "type": "bytes32"
        },
        {
          "indexed": false,
          "internalType": "string",
          "name": "name",
          "type": "string"
        }
      ],
      "name": "NameChanged",
      "type": "event"
    },
    {
      "anonymous": false,
      "inputs": [
        {
          "indexed": true,
          "internalType": "bytes32",
          "name": "node",
          "type": "bytes32"
        },
        {
          "indexed": false,
          "internalType": "bytes32",
          "name": "x",
          "type": "bytes32"
        },
        {
          "indexed": false,
          "internalType": "bytes32",
          "name": "y",
          "type": "bytes32"
        }
      ],
      "name": "PubkeyChanged",
      "type": "event"
    },
    {
      "anonymous": false,
      "inputs": [
        {
          "indexed": true,
          "internalType": "bytes32",
          "name": "node",
          "type": "bytes32"
        },
        {
          "indexed": true,
          "internalType": "string",
          "name": "indexedKey",
          "type": "string"
        },
        {
          "indexed": false,
          "internalType": "string",
          "name": "key",
          "type": "string"
        }
      ],
      "name": "TextChanged",
      "type": "event"
    },
    {
      "inputs": [
        {
          "internalType": "bytes32",
          "name": "node",
          "type": "bytes32"
        },
        {
          "internalType": "uint256",
          "name": "contentTypes",
          "type": "uint256"
        }
      ],
      "name": "ABI",
      "outputs": [
        {
          "internalType": "uint256",
          "name": "",
          "type": "uint256"
        },
        {
          "internalType": "bytes",
          "name": "",
          "type": "bytes"
        }
      ],
      "stateMutability": "view",
      "type": "function"
    },
    {
      "inputs": [
        {
          "internalType": "bytes32",
          "name": "node",
          "type": "bytes32"
        }
      ],
      "name": "addr",
      "outputs": [
        {
          "internalType": "address payable",
          "name": "",
          "type": "address"
        }
      ],
      "stateMutability": "view",
      "type": "function"
    },
    {
      "inputs": [
        {
          "internalType": "bytes32",
          "name": "node",
          "type": "bytes32"
        },
        {
          "internalType": "uint256",
          "name": "coinType",
          "type": "uint256"
        }
      ],
      "name": "addr",
      "outputs": [
        {
          "internalType": "bytes",
          "name": "",
          "type": "bytes"
        }
      ],
      "stateMutability": "view",
      "type": "function"
    },
    {
      "inputs": [
        {
          "internalType": "bytes32",
          "name": "node",
          "type": "bytes32"
        }
      ],
      "name": "clearDNSZone",
      "outputs": [],
      "stateMutability": "nonpayable",
      "type": "function"
    },
    {
      "inputs": [
        {
          "internalType": "bytes32",
          "name": "node",
          "type": "bytes32"
        }
      ],
      "name": "contenthash",
      "outputs": [
        {
          "internalType": "bytes",
          "name": "",
          "type": "bytes"
        }
      ],
      "stateMutability": "view",
      "type": "function"
    },
    {
      "inputs": [
        {
          "internalType": "bytes32",
          "name": "node",
          "type": "bytes32"
        },
        {
          "internalType": "bytes32",
          "name": "name",
          "type": "bytes32"
        },
        {
          "internalType": "uint16",
          "name": "resource",
          "type": "uint16"
        }
      ],
      "name": "dnsRecord",
      "outputs": [
        {
          "internalType": "bytes",
          "name": "",
          "type": "bytes"
        }
      ],
      "stateMutability": "view",
      "type": "function"
    },
    {
      "inputs": [
        {
          "internalType": "bytes32",
          "name": "node",
          "type": "bytes32"
        },
        {
          "internalType": "bytes32",
          "name": "name",
          "type": "bytes32"
        }
      ],
      "name": "hasDNSRecords",
      "outputs": [
        {
          "internalType": "bool",
          "name": "",
          "type": "bool"
        }
      ],
      "stateMutability": "view",
      "type": "function"
    },
    {
      "inputs": [
        {
          "internalType": "bytes32",
          "name": "node",
          "type": "bytes32"
        },
        {
          "internalType": "bytes4",
          "name": "interfaceID",
          "type": "bytes4"
        }
      ],
      "name": "interfaceImplementer",
      "outputs": [
        {
          "internalType": "address",
          "name": "",
          "type": "address"
        }
      ],
      "stateMutability": "view",
      "type": "function"
    },
    {
      "inputs": [
        {
          "internalType": "address",
          "name": "account",
          "type": "address"
        },
        {
          "internalType": "address",
          "name": "operator",
          "type": "address"
        }
      ],
      "name": "isApprovedForAll",
      "outputs": [
        {
          "internalType": "bool",
          "name": "",
          "type": "bool"
        }
      ],
      "stateMutability": "view",
      "type": "function"
    },
    {
      "inputs": [
        {
          "internalType": "bytes[]",
          "name": "data",
          "type": "bytes[]"
        }
      ],
      "name": "multicall",
      "outputs": [
        {
          "internalType": "bytes[]",
          "name": "results",
          "type": "bytes[]"
        }
      ],
      "stateMutability": "nonpayable",
      "type": "function"
    },
    {
      "inputs": [
        {
          "internalType": "bytes32",
          "name": "node",
          "type": "bytes32"
        }
      ],
      "name": "name",
      "outputs": [
        {
          "internalType": "string",
          "name": "",
          "type": "string"
        }
      ],
      "stateMutability": "view",
      "type": "function"
    },
    {
      "inputs": [
        {
          "internalType": "bytes32",
          "name": "node",
          "type": "bytes32"
        }
      ],
      "name": "pubkey",
      "outputs": [
        {
          "internalType": "bytes32",
          "name": "x",
          "type": "bytes32"
        },
        {
          "internalType": "bytes32",
          "name": "y",
          "type": "bytes32"
        }
      ],
      "stateMutability": "view",
      "type": "function"
    },
    {
      "inputs": [
        {
          "internalType": "bytes32",
          "name": "node",
          "type": "bytes32"
        },
        {
          "internalType": "uint256",
          "name": "contentType",
          "type": "uint256"
        },
        {
          "internalType": "bytes",
          "name": "data",
          "type": "bytes"
        }
      ],
      "name": "setABI",
      "outputs": [],
      "stateMutability": "nonpayable",
      "type": "function"
    },
    {
      "inputs": [
        {
          "internalType": "bytes32",
          "name": "node",
          "type": "bytes32"
        },
        {
          "internalType": "uint256",
          "name": "coinType",
          "type": "uint256"
        },
        {
          "internalType": "bytes",
          "name": "a",
          "type": "bytes"
        }
      ],
      "name": "setAddr",
      "outputs": [],
      "stateMutability": "nonpayable",
      "type": "function"
    },
    {
      "inputs": [
        {
          "internalType": "bytes32",
          "name": "node",
          "type": "bytes32"
        },
        {
          "internalType": "address",
          "name": "a",
          "type": "address"
        }
      ],
      "name": "setAddr",
      "outputs": [],
      "stateMutability": "nonpayable",
      "type": "function"
    },
    {
      "inputs": [
        {
          "internalType": "address",
          "name": "operator",
          "type": "address"
        },
        {
          "internalType": "bool",
          "name": "approved",
          "type": "bool"
        }
      ],
      "name": "setApprovalForAll",
      "outputs": [],
      "stateMutability": "nonpayable",
      "type": "function"
    },
    {
      "inputs": [
        {
          "internalType": "bytes32",
          "name": "node",
          "type": "bytes32"
        },
        {
          "internalType": "bytes",
          "name": "hash",
          "type": "bytes"
        }
      ],
      "name": "setContenthash",
      "outputs": [],
      "stateMutability": "nonpayable",
      "type": "function"
    },
    {
      "inputs": [
        {
          "internalType": "bytes32",
          "name": "node",
          "type": "bytes32"
        },
        {
          "internalType": "bytes",
          "name": "data",
          "type": "bytes"
        }
      ],
      "name": "setDNSRecords",
      "outputs": [],
      "stateMutability": "nonpayable",
      "type": "function"
    },
    {
      "inputs": [
        {
          "internalType": "bytes32",
          "name": "node",
          "type": "bytes32"
        },
        {
          "internalType": "bytes4",
          "name": "interfaceID",
          "type": "bytes4"
        },
        {
          "internalType": "address",
          "name": "implementer",
          "type": "address"
        }
      ],
      "name": "setInterface",
      "outputs": [],
      "stateMutability": "nonpayable",
      "type": "function"
    },
    {
      "inputs": [
        {
          "internalType": "bytes32",
          "name": "node",
          "type": "bytes32"
        },
        {
          "internalType": "string",
          "name": "newName",
          "type": "string"
        }
      ],
      "name": "setName",
      "outputs": [],
      "stateMutability": "nonpayable",
      "type": "function"
    },
    {
      "inputs": [
        {
          "internalType": "bytes32",
          "name": "node",
          "type": "bytes32"
        },
        {
          "internalType": "bytes32",
          "name": "x",
          "type": "bytes32"
        },
        {
          "internalType": "bytes32",
          "name": "y",
          "type": "bytes32"
        }
      ],
      "name": "setPubkey",
      "outputs": [],
      "stateMutability": "nonpayable",
      "type": "function"
    },
    {
      "inputs": [
        {
          "internalType": "bytes32",
          "name": "node",
          "type": "bytes32"
        },
        {
          "internalType": "string",
          "name": "key",
          "type": "string"
        },
        {
          "internalType": "string",
          "name": "value",
          "type": "string"
        }
      ],
      "name": "setText",
      "outputs": [],
      "stateMutability": "nonpayable",
      "type": "function"
    },
    {
      "inputs": [
        {
          "internalType": "bytes32",
          "name": "node",
          "type": "bytes32"
        },
        {
          "internalType": "bytes",
          "name": "hash",
          "type": "bytes"
        }
      ],
      "name": "setZonehash",
      "outputs": [],
      "stateMutability": "nonpayable",
      "type": "function"
    },
    {
      "inputs": [
        {
          "internalType": "bytes4",
          "name": "interfaceID",
          "type": "bytes4"
        }
      ],
      "name": "supportsInterface",
      "outputs": [
        {
          "internalType": "bool",
          "name": "",
          "type": "bool"
        }
      ],
      "stateMutability": "view",
      "type": "function"
    },
    {
      "inputs": [
        {
          "internalType": "bytes32",
          "name": "node",
          "type": "bytes32"
        },
        {
          "internalType": "string",
          "name": "key",
          "type": "string"
        }
      ],
      "name": "text",
      "outputs": [
        {
          "internalType": "string",
          "name": "",
          "type": "string"
        }
      ],
      "stateMutability": "view",
      "type": "function"
    },
    {
      "inputs": [
        {
          "internalType": "bytes32",
          "name": "node",
          "type": "bytes32"
        }
      ],
      "name": "zonehash",
      "outputs": [
        {
          "internalType": "bytes",
          "name": "",
          "type": "bytes"
        }
      ],
      "stateMutability": "view",
      "type": "function"
    }
  ],
  "transactionHash": "0x1fd46d806d9ec064ce6b7e7a260d3b8fd145ffc2e316118a52a9e7a1ebd8299a",
  "args": [
    "0xA32505eE9dAEF7f6189e699fD0f6983af8C97Cac",
    "0x268160619F51e6542F9920A3235139559DF0439d",
    "0x76CF12eF1a01C15F9b4bDB0AA7AC3dD09dfcB0C4",
    "0xD47f7e53A1d12EDF6B9d179bB1C33fC9c51417F6"
  ],
  "numDeployments": 1,
  "solcInputHash": "bfe2f3f8b503ffc082ee529a1f4da503",
  "bytecode": "0x6101006040523480156200001257600080fd5b5060405162002e9838038062002e98833981016040819052620000359162000071565b6001600160a01b0393841660805291831660a052821660c0521660e052620000d9565b6001600160a01b03811681146200006e57600080fd5b50565b600080600080608085870312156200008857600080fd5b8451620000958162000058565b6020860151909450620000a88162000058565b6040860151909350620000bb8162000058565b6060860151909250620000ce8162000058565b939692955090935050565b60805160a05160c05160e051612d7e6200011a60003960006116980152600061165901526000818161177d01526117fd015260006116f90152612d7e6000f3fe608060405234801561001057600080fd5b50600436106101ae5760003560e01c806377372213116100ee578063bc1c58d111610097578063d5fa2b0011610071578063d5fa2b0014610410578063e59d895d14610423578063e985e9c514610436578063f1cb7e061461047f57600080fd5b8063bc1c58d1146103ad578063c8690233146103c0578063ce3decdc146103fd57600080fd5b8063a8fa5682116100c8578063a8fa568214610367578063ac9650d81461037a578063ad5780af1461039a57600080fd5b8063773722131461032e5780638b95dd7114610341578063a22cb4651461035457600080fd5b8063304e6ade1161015b57806359d1d43c1161013557806359d1d43c146102d55780635c98042b146102f5578063623195b014610308578063691f34311461031b57600080fd5b8063304e6ade1461026f5780633b3b57de146102825780634cbf6ba41461029557600080fd5b8063124a319c1161018c578063124a319c146102035780632203ab561461023b57806329cd62ea1461025c57600080fd5b806301ffc9a7146101b35780630af179d7146101db57806310f13a8c146101f0575b600080fd5b6101c66101c1366004612437565b610492565b60405190151581526020015b60405180910390f35b6101ee6101e9366004612494565b6104a3565b005b6101ee6101fe3660046124e0565b610691565b61021661021136600461255a565b61073e565b60405173ffffffffffffffffffffffffffffffffffffffff90911681526020016101d2565b61024e610249366004612586565b610abb565b6040516101d2929190612622565b6101ee61026a36600461263b565b610bd6565b6101ee61027d366004612494565b610c56565b610216610290366004612667565b610cb5565b6101c66102a3366004612586565b600091825260066020908152604080842060048352818520548552825280842092845291905290205461ffff16151590565b6102e86102e3366004612494565b610ce7565b6040516101d29190612680565b6102e8610303366004612667565b610dac565b6101ee610316366004612693565b610e4e565b6102e8610329366004612667565b610ecf565b6101ee61033c366004612494565b610eec565b6101ee61034f366004612715565b610f4b565b6101ee610362366004612819565b611022565b6102e8610375366004612857565b611162565b61038d610388366004612897565b6111a5565b6040516101d2919061290c565b6101ee6103a8366004612667565b6112c0565b6102e86103bb366004612667565b611321565b6103e86103ce366004612667565b600090815260096020526040902080546001909101549091565b604080519283526020830191909152016101d2565b6101ee61040b366004612494565b61133e565b6101ee61041e36600461298c565b61144a565b6101ee6104313660046129b1565b611471565b6101c66104443660046129e6565b73ffffffffffffffffffffffffffffffffffffffff9182166000908152600b6020908152604080832093909416825291909152205460ff1690565b6102e861048d366004612586565b61153b565b600061049d826115e9565b92915050565b826104ad8161163f565b6104b657600080fd5b60008060608060008061050360008a8a8080601f01602080910402602001604051908101604052809392919081815260200183838082843760009201919091525092939250506118d89050565b90505b8051516020820151101561062c578561ffff1660000361056b578060400151955061053081611939565b9350836040516020016105439190612a14565b6040516020818303038152906040528051906020012091506105648161195a565b925061061e565b600061057682611939565b9050816040015161ffff168761ffff1614158061059a57506105988582611976565b155b1561061c576105f58b86898d8d8080601f016020809104026020016040519081016040528093929190818152602001838380828437600092019190915250505060208801518c91506105ed908290612a5f565b8a5115611994565b8160400151965081602001519550809450848051906020012092506106198261195a565b93505b505b61062781611bd7565b610506565b50825115610686576106868984878b8b8080601f0160208091040260200160405190810160405280939291908181526020018383808284376000920191909152508b925061067e91508290508e612a5f565b885115611994565b505050505050505050565b8461069b8161163f565b6106a457600080fd5b8282600a600089815260200190815260200160002087876040516106c9929190612a76565b9081526040519081900360200190206106e392909161229a565b5084846040516106f4929190612a76565b6040518091039020867fd8c9334b1a9c2f9da342a0a2b32629c1a229b6445dad78947f674b44444a7550878760405161072e929190612acf565b60405180910390a3505050505050565b60008281526007602090815260408083207fffffffff000000000000000000000000000000000000000000000000000000008516845290915281205473ffffffffffffffffffffffffffffffffffffffff16801561079d57905061049d565b60006107a885610cb5565b905073ffffffffffffffffffffffffffffffffffffffff81166107d05760009250505061049d565b6040517f01ffc9a7000000000000000000000000000000000000000000000000000000006024820152600090819073ffffffffffffffffffffffffffffffffffffffff841690604401604080517fffffffffffffffffffffffffffffffffffffffffffffffffffffffffffffffe08184030181529181526020820180517bffffffffffffffffffffffffffffffffffffffffffffffffffffffff167f01ffc9a7000000000000000000000000000000000000000000000000000000001790525161089a9190612a14565b600060405180830381855afa9150503d80600081146108d5576040519150601f19603f3d011682016040523d82523d6000602084013e6108da565b606091505b50915091508115806108ed575060208151105b8061092f575080601f8151811061090657610906612ae3565b01602001517fff0000000000000000000000000000000000000000000000000000000000000016155b1561094157600094505050505061049d565b6040517fffffffff000000000000000000000000000000000000000000000000000000008716602482015273ffffffffffffffffffffffffffffffffffffffff841690604401604080517fffffffffffffffffffffffffffffffffffffffffffffffffffffffffffffffe08184030181529181526020820180517bffffffffffffffffffffffffffffffffffffffffffffffffffffffff167f01ffc9a70000000000000000000000000000000000000000000000000000000017905251610a089190612a14565b600060405180830381855afa9150503d8060008114610a43576040519150601f19603f3d011682016040523d82523d6000602084013e610a48565b606091505b509092509050811580610a5c575060208151105b80610a9e575080601f81518110610a7557610a75612ae3565b01602001517fff0000000000000000000000000000000000000000000000000000000000000016155b15610ab057600094505050505061049d565b509095945050505050565b600082815260208190526040812060609060015b848111610bb65780851615801590610aff575060008181526020839052604081208054610afb90612b12565b9050115b15610bae5780826000838152602001908152602001600020808054610b2390612b12565b80601f0160208091040260200160405190810160405280929190818152602001828054610b4f90612b12565b8015610b9c5780601f10610b7157610100808354040283529160200191610b9c565b820191906000526020600020905b815481529060010190602001808311610b7f57829003601f168201915b50505050509050935093505050610bcf565b60011b610acf565b5060006040518060200160405280600081525092509250505b9250929050565b82610be08161163f565b610be957600080fd5b60408051808201825284815260208082018581526000888152600983528490209251835551600190920191909155815185815290810184905285917f1d6f5e03d3f63eb58751986629a5439baee5079ff04f345becb66e23eb154e4691015b60405180910390a250505050565b82610c608161163f565b610c6957600080fd5b6000848152600260205260409020610c8290848461229a565b50837fe379c1624ed7e714cc0937528a32359d69d5281337765313dba4e081b72d75788484604051610c48929190612acf565b600080610cc383603c61153b565b90508051600003610cd75750600092915050565b610ce081611cbf565b9392505050565b6060600a60008581526020019081526020016000208383604051610d0c929190612a76565b90815260200160405180910390208054610d2590612b12565b80601f0160208091040260200160405190810160405280929190818152602001828054610d5190612b12565b8015610d9e5780601f10610d7357610100808354040283529160200191610d9e565b820191906000526020600020905b815481529060010190602001808311610d8157829003601f168201915b505050505090509392505050565b6000818152600360205260409020805460609190610dc990612b12565b80601f0160208091040260200160405190810160405280929190818152602001828054610df590612b12565b8015610e425780601f10610e1757610100808354040283529160200191610e42565b820191906000526020600020905b815481529060010190602001808311610e2557829003601f168201915b50505050509050919050565b83610e588161163f565b610e6157600080fd5b83610e6d600182612a5f565b1615610e7857600080fd5b6000858152602081815260408083208784529091529020610e9a90848461229a565b50604051849086907faa121bbeef5f32f5961a2a28966e769023910fc9479059ee3495d4c1a696efe390600090a35050505050565b6000818152600860205260409020805460609190610dc990612b12565b82610ef68161163f565b610eff57600080fd5b6000848152600860205260409020610f1890848461229a565b50837fb7d29e911041e8d9b843369e890bcb72c9388692ba48b65ac54e7214c4c348f78484604051610c48929190612acf565b82610f558161163f565b610f5e57600080fd5b837f65412581168e88a1e60c6459d7f44ae83ad0832e670826c05a4e2476b57af7528484604051610f90929190612622565b60405180910390a2603c8303610ff457837f52d7d861f09ab3d26239d492e8968629f95e9e318cf0b73bfddc441522a15fd2610fcb84611cbf565b60405173ffffffffffffffffffffffffffffffffffffffff909116815260200160405180910390a25b60008481526001602090815260408083208684528252909120835161101b9285019061233c565b5050505050565b73ffffffffffffffffffffffffffffffffffffffff821633036110cb576040517f08c379a000000000000000000000000000000000000000000000000000000000815260206004820152602960248201527f455243313135353a2073657474696e6720617070726f76616c2073746174757360448201527f20666f722073656c660000000000000000000000000000000000000000000000606482015260840160405180910390fd5b336000818152600b6020908152604080832073ffffffffffffffffffffffffffffffffffffffff87168085529083529281902080547fffffffffffffffffffffffffffffffffffffffffffffffffffffffffffffff001686151590811790915590519081529192917f17307eab39ab6107e8899845ad3d59bd9653f200f220920489ca2b5937696c31910160405180910390a35050565b6000838152600560209081526040808320600483528184205484528252808320858452825280832061ffff851684529091529020805460609190610d2590612b12565b60608167ffffffffffffffff8111156111c0576111c06126e6565b6040519080825280602002602001820160405280156111f357816020015b60608152602001906001900390816111de5790505b50905060005b828110156112b9576000803086868581811061121757611217612ae3565b90506020028101906112299190612b65565b604051611237929190612a76565b600060405180830381855af49150503d8060008114611272576040519150601f19603f3d011682016040523d82523d6000602084013e611277565b606091505b50915091508161128657600080fd5b8084848151811061129957611299612ae3565b6020026020010181905250505080806112b190612bca565b9150506111f9565b5092915050565b806112ca8161163f565b6112d357600080fd5b60008281526004602052604081208054916112ed83612bca565b909155505060405182907fb757169b8492ca2f1c6619d9d76ce22803035c3b1d5f6930dffe7b127c1a198390600090a25050565b6000818152600260205260409020805460609190610dc990612b12565b826113488161163f565b61135157600080fd5b6000848152600360205260408120805461136a90612b12565b80601f016020809104026020016040519081016040528092919081815260200182805461139690612b12565b80156113e35780601f106113b8576101008083540402835291602001916113e3565b820191906000526020600020905b8154815290600101906020018083116113c657829003601f168201915b50505060008881526003602052604090209293506114069291508690508561229a565b50847f8f15ed4b723ef428f250961da8315675b507046737e19319fc1a4d81bfe87f8582868660405161143b93929190612c02565b60405180910390a25050505050565b816114548161163f565b61145d57600080fd5b61146c83603c61034f85611ce7565b505050565b8261147b8161163f565b61148457600080fd5b60008481526007602090815260408083207fffffffff0000000000000000000000000000000000000000000000000000000087168085529083529281902080547fffffffffffffffffffffffff00000000000000000000000000000000000000001673ffffffffffffffffffffffffffffffffffffffff8716908117909155905190815286917f7c69f06bea0bdef565b709e93a147836b0063ba2dd89f02d0b7e8d931e6a6daa910160405180910390a350505050565b6000828152600160209081526040808320848452909152902080546060919061156390612b12565b80601f016020809104026020016040519081016040528092919081815260200182805461158f90612b12565b80156115dc5780601f106115b1576101008083540402835291602001916115dc565b820191906000526020600020905b8154815290600101906020018083116115bf57829003601f168201915b5050505050905092915050565b60007fffffffff0000000000000000000000000000000000000000000000000000000082167f59d1d43c00000000000000000000000000000000000000000000000000000000148061049d575061049d82611d20565b60003373ffffffffffffffffffffffffffffffffffffffff7f00000000000000000000000000000000000000000000000000000000000000001614806116ba57503373ffffffffffffffffffffffffffffffffffffffff7f000000000000000000000000000000000000000000000000000000000000000016145b156116c757506001919050565b6040517f02571be3000000000000000000000000000000000000000000000000000000008152600481018390526000907f000000000000000000000000000000000000000000000000000000000000000073ffffffffffffffffffffffffffffffffffffffff16906302571be390602401602060405180830381865afa158015611755573d6000803e3d6000fd5b505050506040513d601f19601f820116820180604052508101906117799190612c32565b90507f000000000000000000000000000000000000000000000000000000000000000073ffffffffffffffffffffffffffffffffffffffff168173ffffffffffffffffffffffffffffffffffffffff1603611880576040517f6352211e000000000000000000000000000000000000000000000000000000008152600481018490527f000000000000000000000000000000000000000000000000000000000000000073ffffffffffffffffffffffffffffffffffffffff1690636352211e90602401602060405180830381865afa158015611859573d6000803e3d6000fd5b505050506040513d601f19601f8201168201806040525081019061187d9190612c32565b90505b73ffffffffffffffffffffffffffffffffffffffff8116331480610ce0575073ffffffffffffffffffffffffffffffffffffffff81166000908152600b6020908152604080832033845290915290205460ff16610ce0565b6119266040518060e001604052806060815260200160008152602001600061ffff168152602001600061ffff168152602001600063ffffffff16815260200160008152602001600081525090565b82815260c0810182905261049d81611bd7565b6020810151815160609161049d916119519082611d76565b84519190611dd8565b60a081015160c082015160609161049d91611951908290612a5f565b600081518351148015610ce05750610ce08360008460008751611e4f565b600087815260046020908152604082205488519189019190912090916119bb878787611dd8565b90508315611ac45760008a81526005602090815260408083208684528252808320858452825280832061ffff8c168452909152902080546119fb90612b12565b159050611a4f5760008a815260066020908152604080832086845282528083208584529091528120805461ffff1691611a3383612c4f565b91906101000a81548161ffff021916908361ffff160217905550505b60008a81526005602090815260408083208684528252808320858452825280832061ffff8c1684529091528120611a85916123b0565b897f03528ed0c2a3ebc993b12ce3c16bb382f9c7d88ef7d8a1bf290eaf35955a12078a8a604051611ab7929190612c8b565b60405180910390a2611bcb565b60008a81526005602090815260408083208684528252808320858452825280832061ffff8c16845290915290208054611afc90612b12565b9050600003611b525760008a815260066020908152604080832086845282528083208584529091528120805461ffff1691611b3683612cb1565b91906101000a81548161ffff021916908361ffff160217905550505b60008a81526005602090815260408083208684528252808320858452825280832061ffff8c16845282529091208251611b8d9284019061233c565b50897f52a608b3303a48862d07a73d82fa221318c0027fbbcfb1b2329bface3f19ff2b8a8a84604051611bc293929190612cd2565b60405180910390a25b50505050505050505050565b60c08101516020820181905281515111611bee5750565b6000611c0282600001518360200151611d76565b8260200151611c119190612d01565b8251909150611c209082611e72565b61ffff166040830152611c34600282612d01565b8251909150611c439082611e72565b61ffff166060830152611c57600282612d01565b8251909150611c669082611e9a565b63ffffffff166080830152611c7c600482612d01565b8251909150600090611c8e9083611e72565b61ffff169050611c9f600283612d01565b60a084018190529150611cb28183612d01565b60c0909301929092525050565b60008151601414611ccf57600080fd5b50602001516c01000000000000000000000000900490565b6040805160148082528183019092526060916020820181803683375050506c010000000000000000000000009290920260208301525090565b60007fffffffff0000000000000000000000000000000000000000000000000000000082167fc869023300000000000000000000000000000000000000000000000000000000148061049d575061049d82611ec4565b6000815b83518110611d8a57611d8a612d19565b6000611d968583611f1a565b60ff169050611da6816001612d01565b611db09083612d01565b915080600003611dc05750611dc6565b50611d7a565b611dd08382612a5f565b949350505050565b8251606090611de78385612d01565b1115611df257600080fd5b60008267ffffffffffffffff811115611e0d57611e0d6126e6565b6040519080825280601f01601f191660200182016040528015611e37576020820181803683370190505b50905060208082019086860101610ab0828287611f3e565b6000611e5c848484611fb2565b611e67878785611fb2565b149695505050505050565b8151600090611e82836002612d01565b1115611e8d57600080fd5b50016002015161ffff1690565b8151600090611eaa836004612d01565b1115611eb557600080fd5b50016004015163ffffffff1690565b60007fffffffff0000000000000000000000000000000000000000000000000000000082167f691f343100000000000000000000000000000000000000000000000000000000148061049d575061049d82611fd6565b6000828281518110611f2e57611f2e612ae3565b016020015160f81c905092915050565b60208110611f765781518352611f55602084612d01565b9250611f62602083612d01565b9150611f6f602082612a5f565b9050611f3e565b905182516020929092036101000a7fffffffffffffffffffffffffffffffffffffffffffffffffffffffffffffffff0180199091169116179052565b8251600090611fc18385612d01565b1115611fcc57600080fd5b5091016020012090565b60007fffffffff0000000000000000000000000000000000000000000000000000000082167f124a319c00000000000000000000000000000000000000000000000000000000148061049d575061049d8260007fffffffff0000000000000000000000000000000000000000000000000000000082167fa8fa56820000000000000000000000000000000000000000000000000000000014806120ba57507fffffffff0000000000000000000000000000000000000000000000000000000082167f5c98042b00000000000000000000000000000000000000000000000000000000145b8061049d575061049d8260007fffffffff0000000000000000000000000000000000000000000000000000000082167fbc1c58d100000000000000000000000000000000000000000000000000000000148061049d575061049d8260007fffffffff0000000000000000000000000000000000000000000000000000000082167f3b3b57de0000000000000000000000000000000000000000000000000000000014806121a857507fffffffff0000000000000000000000000000000000000000000000000000000082167ff1cb7e0600000000000000000000000000000000000000000000000000000000145b8061049d575061049d8260007fffffffff0000000000000000000000000000000000000000000000000000000082167f2203ab5600000000000000000000000000000000000000000000000000000000148061049d575061049d8260007fffffffff0000000000000000000000000000000000000000000000000000000082167fac9650d800000000000000000000000000000000000000000000000000000000148061049d57507f01ffc9a7000000000000000000000000000000000000000000000000000000007fffffffff0000000000000000000000000000000000000000000000000000000083161461049d565b8280546122a690612b12565b90600052602060002090601f0160209004810192826122c8576000855561232c565b82601f106122ff578280017fffffffffffffffffffffffffffffffffffffffffffffffffffffffffffffff0082351617855561232c565b8280016001018555821561232c579182015b8281111561232c578235825591602001919060010190612311565b506123389291506123ed565b5090565b82805461234890612b12565b90600052602060002090601f01602090048101928261236a576000855561232c565b82601f1061238357805160ff191683800117855561232c565b8280016001018555821561232c579182015b8281111561232c578251825591602001919060010190612395565b5080546123bc90612b12565b6000825580601f106123cc575050565b601f0160209004906000526020600020908101906123ea91906123ed565b50565b5b8082111561233857600081556001016123ee565b80357fffffffff000000000000000000000000000000000000000000000000000000008116811461243257600080fd5b919050565b60006020828403121561244957600080fd5b610ce082612402565b60008083601f84011261246457600080fd5b50813567ffffffffffffffff81111561247c57600080fd5b602083019150836020828501011115610bcf57600080fd5b6000806000604084860312156124a957600080fd5b83359250602084013567ffffffffffffffff8111156124c757600080fd5b6124d386828701612452565b9497909650939450505050565b6000806000806000606086880312156124f857600080fd5b85359450602086013567ffffffffffffffff8082111561251757600080fd5b61252389838a01612452565b9096509450604088013591508082111561253c57600080fd5b5061254988828901612452565b969995985093965092949392505050565b6000806040838503121561256d57600080fd5b8235915061257d60208401612402565b90509250929050565b6000806040838503121561259957600080fd5b50508035926020909101359150565b60005b838110156125c35781810151838201526020016125ab565b838111156125d2576000848401525b50505050565b600081518084526125f08160208601602086016125a8565b601f017fffffffffffffffffffffffffffffffffffffffffffffffffffffffffffffffe0169290920160200192915050565b828152604060208201526000611dd060408301846125d8565b60008060006060848603121561265057600080fd5b505081359360208301359350604090920135919050565b60006020828403121561267957600080fd5b5035919050565b602081526000610ce060208301846125d8565b600080600080606085870312156126a957600080fd5b8435935060208501359250604085013567ffffffffffffffff8111156126ce57600080fd5b6126da87828801612452565b95989497509550505050565b7f4e487b7100000000000000000000000000000000000000000000000000000000600052604160045260246000fd5b60008060006060848603121561272a57600080fd5b8335925060208401359150604084013567ffffffffffffffff8082111561275057600080fd5b818601915086601f83011261276457600080fd5b813581811115612776576127766126e6565b604051601f82017fffffffffffffffffffffffffffffffffffffffffffffffffffffffffffffffe0908116603f011681019083821181831017156127bc576127bc6126e6565b816040528281528960208487010111156127d557600080fd5b8260208601602083013760006020848301015280955050505050509250925092565b73ffffffffffffffffffffffffffffffffffffffff811681146123ea57600080fd5b6000806040838503121561282c57600080fd5b8235612837816127f7565b91506020830135801515811461284c57600080fd5b809150509250929050565b60008060006060848603121561286c57600080fd5b8335925060208401359150604084013561ffff8116811461288c57600080fd5b809150509250925092565b600080602083850312156128aa57600080fd5b823567ffffffffffffffff808211156128c257600080fd5b818501915085601f8301126128d657600080fd5b8135818111156128e557600080fd5b8660208260051b85010111156128fa57600080fd5b60209290920196919550909350505050565b6000602080830181845280855180835260408601915060408160051b870101925083870160005b8281101561297f577fffffffffffffffffffffffffffffffffffffffffffffffffffffffffffffffc088860301845261296d8583516125d8565b94509285019290850190600101612933565b5092979650505050505050565b6000806040838503121561299f57600080fd5b82359150602083013561284c816127f7565b6000806000606084860312156129c657600080fd5b833592506129d660208501612402565b9150604084013561288c816127f7565b600080604083850312156129f957600080fd5b8235612a04816127f7565b9150602083013561284c816127f7565b60008251612a268184602087016125a8565b9190910192915050565b7f4e487b7100000000000000000000000000000000000000000000000000000000600052601160045260246000fd5b600082821015612a7157612a71612a30565b500390565b8183823760009101908152919050565b8183528181602085013750600060208284010152600060207fffffffffffffffffffffffffffffffffffffffffffffffffffffffffffffffe0601f840116840101905092915050565b602081526000611dd0602083018486612a86565b7f4e487b7100000000000000000000000000000000000000000000000000000000600052603260045260246000fd5b600181811c90821680612b2657607f821691505b602082108103612b5f577f4e487b7100000000000000000000000000000000000000000000000000000000600052602260045260246000fd5b50919050565b60008083357fffffffffffffffffffffffffffffffffffffffffffffffffffffffffffffffe1843603018112612b9a57600080fd5b83018035915067ffffffffffffffff821115612bb557600080fd5b602001915036819003821315610bcf57600080fd5b60007fffffffffffffffffffffffffffffffffffffffffffffffffffffffffffffffff8203612bfb57612bfb612a30565b5060010190565b604081526000612c1560408301866125d8565b8281036020840152612c28818587612a86565b9695505050505050565b600060208284031215612c4457600080fd5b8151610ce0816127f7565b600061ffff821680612c6357612c63612a30565b7fffffffffffffffffffffffffffffffffffffffffffffffffffffffffffffffff0192915050565b604081526000612c9e60408301856125d8565b905061ffff831660208301529392505050565b600061ffff808316818103612cc857612cc8612a30565b6001019392505050565b606081526000612ce560608301866125d8565b61ffff851660208401528281036040840152612c2881856125d8565b60008219821115612d1457612d14612a30565b500190565b7f4e487b7100000000000000000000000000000000000000000000000000000000600052600160045260246000fdfea264697066735822122017b3e680dc23d712e3971f2217d550695e594a6f174f0ed1adabba4ba578aac564736f6c634300080d0033",
  "devdoc": {
    "kind": "dev",
    "methods": {
      "ABI(bytes32,uint256)": {
        "params": {
          "contentTypes": "A bitwise OR of the ABI formats accepted by the caller.",
          "node": "The ENS node to query"
        },
        "returns": {
          "_0": "contentType The content type of the return value",
          "_1": "data The ABI data"
        }
      },
      "addr(bytes32)": {
        "params": {
          "node": "The ENS node to query."
        },
        "returns": {
          "_0": "The associated address."
        }
      },
      "clearDNSZone(bytes32)": {
        "params": {
          "node": "the namehash of the node for which to clear the zone"
        }
      },
      "contenthash(bytes32)": {
        "params": {
          "node": "The ENS node to query."
        },
        "returns": {
          "_0": "The associated contenthash."
        }
      },
      "dnsRecord(bytes32,bytes32,uint16)": {
        "params": {
          "name": "the keccak-256 hash of the fully-qualified name for which to fetch the record",
          "node": "the namehash of the node for which to fetch the record",
          "resource": "the ID of the resource as per https://en.wikipedia.org/wiki/List_of_DNS_record_types"
        },
        "returns": {
          "_0": "the DNS record in wire format if present, otherwise empty"
        }
      },
      "hasDNSRecords(bytes32,bytes32)": {
        "params": {
          "name": "the namehash of the node for which to check the records",
          "node": "the namehash of the node for which to check the records"
        }
      },
      "interfaceImplementer(bytes32,bytes4)": {
        "params": {
          "interfaceID": "The EIP 165 interface ID to check for.",
          "node": "The ENS node to query."
        },
        "returns": {
          "_0": "The address that implements this interface, or 0 if the interface is unsupported."
        }
      },
      "isApprovedForAll(address,address)": {
        "details": "See {IERC1155-isApprovedForAll}."
      },
      "name(bytes32)": {
        "params": {
          "node": "The ENS node to query."
        },
        "returns": {
          "_0": "The associated name."
        }
      },
      "pubkey(bytes32)": {
        "params": {
          "node": "The ENS node to query"
        },
        "returns": {
          "x": "The X coordinate of the curve point for the public key.",
          "y": "The Y coordinate of the curve point for the public key."
        }
      },
      "setABI(bytes32,uint256,bytes)": {
        "params": {
          "contentType": "The content type of the ABI",
          "data": "The ABI data.",
          "node": "The node to update."
        }
      },
      "setAddr(bytes32,address)": {
        "params": {
          "a": "The address to set.",
          "node": "The node to update."
        }
      },
      "setApprovalForAll(address,bool)": {
        "details": "See {IERC1155-setApprovalForAll}."
      },
      "setContenthash(bytes32,bytes)": {
        "params": {
          "hash": "The contenthash to set",
          "node": "The node to update."
        }
      },
      "setDNSRecords(bytes32,bytes)": {
        "params": {
          "data": "the DNS wire format records to set",
          "node": "the namehash of the node for which to set the records"
        }
      },
      "setInterface(bytes32,bytes4,address)": {
        "params": {
          "implementer": "The address of a contract that implements this interface for this node.",
          "interfaceID": "The EIP 165 interface ID.",
          "node": "The node to update."
        }
      },
      "setName(bytes32,string)": {
        "params": {
          "node": "The node to update."
        }
      },
      "setPubkey(bytes32,bytes32,bytes32)": {
        "params": {
          "node": "The ENS node to query",
          "x": "the X coordinate of the curve point for the public key.",
          "y": "the Y coordinate of the curve point for the public key."
        }
      },
      "setText(bytes32,string,string)": {
        "params": {
          "key": "The key to set.",
          "node": "The node to update.",
          "value": "The text data value to set."
        }
      },
      "setZonehash(bytes32,bytes)": {
        "params": {
          "hash": "The zonehash to set",
          "node": "The node to update."
        }
      },
      "text(bytes32,string)": {
        "params": {
          "key": "The text data key to query.",
          "node": "The ENS node to query."
        },
        "returns": {
          "_0": "The associated text data."
        }
      },
      "zonehash(bytes32)": {
        "params": {
          "node": "The ENS node to query."
        },
        "returns": {
          "_0": "The associated contenthash."
        }
      }
    },
    "version": 1
  },
  "userdoc": {
    "kind": "user",
    "methods": {
      "ABI(bytes32,uint256)": {
        "notice": "Returns the ABI associated with an ENS node. Defined in EIP205."
      },
      "addr(bytes32)": {
        "notice": "Returns the address associated with an ENS node."
      },
      "clearDNSZone(bytes32)": {
        "notice": "Clear all information for a DNS zone."
      },
      "contenthash(bytes32)": {
        "notice": "Returns the contenthash associated with an ENS node."
      },
      "dnsRecord(bytes32,bytes32,uint16)": {
        "notice": "Obtain a DNS record."
      },
      "hasDNSRecords(bytes32,bytes32)": {
        "notice": "Check if a given node has records."
      },
      "interfaceImplementer(bytes32,bytes4)": {
        "notice": "Returns the address of a contract that implements the specified interface for this name. If an implementer has not been set for this interfaceID and name, the resolver will query the contract at `addr()`. If `addr()` is set, a contract exists at that address, and that contract implements EIP165 and returns `true` for the specified interfaceID, its address will be returned."
      },
      "name(bytes32)": {
        "notice": "Returns the name associated with an ENS node, for reverse records. Defined in EIP181."
      },
      "pubkey(bytes32)": {
        "notice": "Returns the SECP256k1 public key associated with an ENS node. Defined in EIP 619."
      },
      "setABI(bytes32,uint256,bytes)": {
        "notice": "Sets the ABI associated with an ENS node. Nodes may have one ABI of each content type. To remove an ABI, set it to the empty string."
      },
      "setAddr(bytes32,address)": {
        "notice": "Sets the address associated with an ENS node. May only be called by the owner of that node in the ENS registry."
      },
      "setContenthash(bytes32,bytes)": {
        "notice": "Sets the contenthash associated with an ENS node. May only be called by the owner of that node in the ENS registry."
      },
      "setDNSRecords(bytes32,bytes)": {
        "notice": "Set one or more DNS records.  Records are supplied in wire-format. Records with the same node/name/resource must be supplied one after the other to ensure the data is updated correctly. For example, if the data was supplied:     a.example.com IN A 1.2.3.4     a.example.com IN A 5.6.7.8     www.example.com IN CNAME a.example.com. then this would store the two A records for a.example.com correctly as a single RRSET, however if the data was supplied:     a.example.com IN A 1.2.3.4     www.example.com IN CNAME a.example.com.     a.example.com IN A 5.6.7.8 then this would store the first A record, the CNAME, then the second A record which would overwrite the first."
      },
      "setInterface(bytes32,bytes4,address)": {
        "notice": "Sets an interface associated with a name. Setting the address to 0 restores the default behaviour of querying the contract at `addr()` for interface support."
      },
      "setName(bytes32,string)": {
        "notice": "Sets the name associated with an ENS node, for reverse records. May only be called by the owner of that node in the ENS registry."
      },
      "setPubkey(bytes32,bytes32,bytes32)": {
        "notice": "Sets the SECP256k1 public key associated with an ENS node."
      },
      "setText(bytes32,string,string)": {
        "notice": "Sets the text data associated with an ENS node and key. May only be called by the owner of that node in the ENS registry."
      },
      "setZonehash(bytes32,bytes)": {
        "notice": "setZonehash sets the hash for the zone. May only be called by the owner of that node in the ENS registry."
      },
      "text(bytes32,string)": {
        "notice": "Returns the text data associated with an ENS node and key."
      },
      "zonehash(bytes32)": {
        "notice": "zonehash obtains the hash for the zone."
      }
    },
    "notice": "A simple resolver anyone can use; only allows the owner of a node to set its address.",
    "version": 1
  },
  "storageLayout": {
    "storage": [
      {
        "astId": 14396,
        "contract": "contracts/resolvers/PublicResolver.sol:PublicResolver",
        "label": "abis",
        "offset": 0,
        "slot": "0",
        "type": "t_mapping(t_bytes32,t_mapping(t_uint256,t_bytes_storage))"
      },
      {
        "astId": 14540,
        "contract": "contracts/resolvers/PublicResolver.sol:PublicResolver",
        "label": "_addresses",
        "offset": 0,
        "slot": "1",
        "type": "t_mapping(t_bytes32,t_mapping(t_uint256,t_bytes_storage))"
      },
      {
        "astId": 14721,
        "contract": "contracts/resolvers/PublicResolver.sol:PublicResolver",
        "label": "hashes",
        "offset": 0,
        "slot": "2",
        "type": "t_mapping(t_bytes32,t_bytes_storage)"
      },
      {
        "astId": 14801,
        "contract": "contracts/resolvers/PublicResolver.sol:PublicResolver",
        "label": "zonehashes",
        "offset": 0,
        "slot": "3",
        "type": "t_mapping(t_bytes32,t_bytes_storage)"
      },
      {
        "astId": 14805,
        "contract": "contracts/resolvers/PublicResolver.sol:PublicResolver",
        "label": "versions",
        "offset": 0,
        "slot": "4",
        "type": "t_mapping(t_bytes32,t_uint256)"
      },
      {
        "astId": 14815,
        "contract": "contracts/resolvers/PublicResolver.sol:PublicResolver",
        "label": "records",
        "offset": 0,
        "slot": "5",
        "type": "t_mapping(t_bytes32,t_mapping(t_uint256,t_mapping(t_bytes32,t_mapping(t_uint16,t_bytes_storage))))"
      },
      {
        "astId": 14823,
        "contract": "contracts/resolvers/PublicResolver.sol:PublicResolver",
        "label": "nameEntriesCount",
        "offset": 0,
        "slot": "6",
        "type": "t_mapping(t_bytes32,t_mapping(t_uint256,t_mapping(t_bytes32,t_uint16)))"
      },
      {
        "astId": 15504,
        "contract": "contracts/resolvers/PublicResolver.sol:PublicResolver",
        "label": "interfaces",
        "offset": 0,
        "slot": "7",
        "type": "t_mapping(t_bytes32,t_mapping(t_bytes4,t_address))"
      },
      {
        "astId": 15686,
        "contract": "contracts/resolvers/PublicResolver.sol:PublicResolver",
        "label": "names",
        "offset": 0,
        "slot": "8",
        "type": "t_mapping(t_bytes32,t_string_storage)"
      },
      {
        "astId": 15763,
        "contract": "contracts/resolvers/PublicResolver.sol:PublicResolver",
        "label": "pubkeys",
        "offset": 0,
        "slot": "9",
        "type": "t_mapping(t_bytes32,t_struct(PublicKey)15758_storage)"
      },
      {
        "astId": 15850,
        "contract": "contracts/resolvers/PublicResolver.sol:PublicResolver",
        "label": "texts",
        "offset": 0,
        "slot": "10",
        "type": "t_mapping(t_bytes32,t_mapping(t_string_memory_ptr,t_string_storage))"
      },
      {
        "astId": 14031,
        "contract": "contracts/resolvers/PublicResolver.sol:PublicResolver",
        "label": "_operatorApprovals",
        "offset": 0,
        "slot": "11",
        "type": "t_mapping(t_address,t_mapping(t_address,t_bool))"
      }
    ],
    "types": {
      "t_address": {
        "encoding": "inplace",
        "label": "address",
        "numberOfBytes": "20"
      },
      "t_bool": {
        "encoding": "inplace",
        "label": "bool",
        "numberOfBytes": "1"
      },
      "t_bytes32": {
        "encoding": "inplace",
        "label": "bytes32",
        "numberOfBytes": "32"
      },
      "t_bytes4": {
        "encoding": "inplace",
        "label": "bytes4",
        "numberOfBytes": "4"
      },
      "t_bytes_storage": {
        "encoding": "bytes",
        "label": "bytes",
        "numberOfBytes": "32"
      },
      "t_mapping(t_address,t_bool)": {
        "encoding": "mapping",
        "key": "t_address",
        "label": "mapping(address => bool)",
        "numberOfBytes": "32",
        "value": "t_bool"
      },
      "t_mapping(t_address,t_mapping(t_address,t_bool))": {
        "encoding": "mapping",
        "key": "t_address",
        "label": "mapping(address => mapping(address => bool))",
        "numberOfBytes": "32",
        "value": "t_mapping(t_address,t_bool)"
      },
      "t_mapping(t_bytes32,t_bytes_storage)": {
        "encoding": "mapping",
        "key": "t_bytes32",
        "label": "mapping(bytes32 => bytes)",
        "numberOfBytes": "32",
        "value": "t_bytes_storage"
      },
      "t_mapping(t_bytes32,t_mapping(t_bytes4,t_address))": {
        "encoding": "mapping",
        "key": "t_bytes32",
        "label": "mapping(bytes32 => mapping(bytes4 => address))",
        "numberOfBytes": "32",
        "value": "t_mapping(t_bytes4,t_address)"
      },
      "t_mapping(t_bytes32,t_mapping(t_string_memory_ptr,t_string_storage))": {
        "encoding": "mapping",
        "key": "t_bytes32",
        "label": "mapping(bytes32 => mapping(string => string))",
        "numberOfBytes": "32",
        "value": "t_mapping(t_string_memory_ptr,t_string_storage)"
      },
      "t_mapping(t_bytes32,t_mapping(t_uint16,t_bytes_storage))": {
        "encoding": "mapping",
        "key": "t_bytes32",
        "label": "mapping(bytes32 => mapping(uint16 => bytes))",
        "numberOfBytes": "32",
        "value": "t_mapping(t_uint16,t_bytes_storage)"
      },
      "t_mapping(t_bytes32,t_mapping(t_uint256,t_bytes_storage))": {
        "encoding": "mapping",
        "key": "t_bytes32",
        "label": "mapping(bytes32 => mapping(uint256 => bytes))",
        "numberOfBytes": "32",
        "value": "t_mapping(t_uint256,t_bytes_storage)"
      },
      "t_mapping(t_bytes32,t_mapping(t_uint256,t_mapping(t_bytes32,t_mapping(t_uint16,t_bytes_storage))))": {
        "encoding": "mapping",
        "key": "t_bytes32",
        "label": "mapping(bytes32 => mapping(uint256 => mapping(bytes32 => mapping(uint16 => bytes))))",
        "numberOfBytes": "32",
        "value": "t_mapping(t_uint256,t_mapping(t_bytes32,t_mapping(t_uint16,t_bytes_storage)))"
      },
      "t_mapping(t_bytes32,t_mapping(t_uint256,t_mapping(t_bytes32,t_uint16)))": {
        "encoding": "mapping",
        "key": "t_bytes32",
        "label": "mapping(bytes32 => mapping(uint256 => mapping(bytes32 => uint16)))",
        "numberOfBytes": "32",
        "value": "t_mapping(t_uint256,t_mapping(t_bytes32,t_uint16))"
      },
      "t_mapping(t_bytes32,t_string_storage)": {
        "encoding": "mapping",
        "key": "t_bytes32",
        "label": "mapping(bytes32 => string)",
        "numberOfBytes": "32",
        "value": "t_string_storage"
      },
      "t_mapping(t_bytes32,t_struct(PublicKey)15758_storage)": {
        "encoding": "mapping",
        "key": "t_bytes32",
        "label": "mapping(bytes32 => struct PubkeyResolver.PublicKey)",
        "numberOfBytes": "32",
        "value": "t_struct(PublicKey)15758_storage"
      },
      "t_mapping(t_bytes32,t_uint16)": {
        "encoding": "mapping",
        "key": "t_bytes32",
        "label": "mapping(bytes32 => uint16)",
        "numberOfBytes": "32",
        "value": "t_uint16"
      },
      "t_mapping(t_bytes32,t_uint256)": {
        "encoding": "mapping",
        "key": "t_bytes32",
        "label": "mapping(bytes32 => uint256)",
        "numberOfBytes": "32",
        "value": "t_uint256"
      },
      "t_mapping(t_bytes4,t_address)": {
        "encoding": "mapping",
        "key": "t_bytes4",
        "label": "mapping(bytes4 => address)",
        "numberOfBytes": "32",
        "value": "t_address"
      },
      "t_mapping(t_string_memory_ptr,t_string_storage)": {
        "encoding": "mapping",
        "key": "t_string_memory_ptr",
        "label": "mapping(string => string)",
        "numberOfBytes": "32",
        "value": "t_string_storage"
      },
      "t_mapping(t_uint16,t_bytes_storage)": {
        "encoding": "mapping",
        "key": "t_uint16",
        "label": "mapping(uint16 => bytes)",
        "numberOfBytes": "32",
        "value": "t_bytes_storage"
      },
      "t_mapping(t_uint256,t_bytes_storage)": {
        "encoding": "mapping",
        "key": "t_uint256",
        "label": "mapping(uint256 => bytes)",
        "numberOfBytes": "32",
        "value": "t_bytes_storage"
      },
      "t_mapping(t_uint256,t_mapping(t_bytes32,t_mapping(t_uint16,t_bytes_storage)))": {
        "encoding": "mapping",
        "key": "t_uint256",
        "label": "mapping(uint256 => mapping(bytes32 => mapping(uint16 => bytes)))",
        "numberOfBytes": "32",
        "value": "t_mapping(t_bytes32,t_mapping(t_uint16,t_bytes_storage))"
      },
      "t_mapping(t_uint256,t_mapping(t_bytes32,t_uint16))": {
        "encoding": "mapping",
        "key": "t_uint256",
        "label": "mapping(uint256 => mapping(bytes32 => uint16))",
        "numberOfBytes": "32",
        "value": "t_mapping(t_bytes32,t_uint16)"
      },
      "t_string_memory_ptr": {
        "encoding": "bytes",
        "label": "string",
        "numberOfBytes": "32"
      },
      "t_string_storage": {
        "encoding": "bytes",
        "label": "string",
        "numberOfBytes": "32"
      },
      "t_struct(PublicKey)15758_storage": {
        "encoding": "inplace",
        "label": "struct PubkeyResolver.PublicKey",
        "members": [
          {
            "astId": 15755,
            "contract": "contracts/resolvers/PublicResolver.sol:PublicResolver",
            "label": "x",
            "offset": 0,
            "slot": "0",
            "type": "t_bytes32"
          },
          {
            "astId": 15757,
            "contract": "contracts/resolvers/PublicResolver.sol:PublicResolver",
            "label": "y",
            "offset": 0,
            "slot": "1",
            "type": "t_bytes32"
          }
        ],
        "numberOfBytes": "64"
      },
      "t_uint16": {
        "encoding": "inplace",
        "label": "uint16",
        "numberOfBytes": "2"
      },
      "t_uint256": {
        "encoding": "inplace",
        "label": "uint256",
        "numberOfBytes": "32"
      }
    }
  }
}